{"abi":[{"inputs":[{"internalType":"address","name":"addressEIP20","type":"address"}],"stateMutability":"nonpayable","type":"constructor"},{"inputs":[],"name":"manager","outputs":[{"internalType":"address","name":"","type":"address"}],"stateMutability":"view","type":"function"},{"inputs":[],"name":"sendCoins","outputs":[{"internalType":"bool","name":"","type":"bool"}],"stateMutability":"nonpayable","type":"function"},{"stateMutability":"payable","type":"receive"}],"devdoc":{"kind":"dev","methods":{},"version":1},"evm":{"assembly":"    /* \"Healthcare.sol\":316:772  contract Healthcare {\r... */\n  mstore(0x40, 0x80)\n    /* \"Healthcare.sol\":410:529  constructor(address addressEIP20) {\r... */\n  callvalue\n  dup1\n  iszero\n  tag_1\n  jumpi\n  0x00\n  dup1\n  revert\ntag_1:\n  pop\n  mload(0x40)\n  sub(codesize, bytecodeSize)\n  dup1\n  bytecodeSize\n  dup4\n  codecopy\n  dup2\n  dup2\n  add\n  0x40\n  mstore\n  0x20\n  dup2\n  lt\n  iszero\n  tag_2\n  jumpi\n  0x00\n  dup1\n  revert\ntag_2:\n  dup2\n  add\n  swap1\n  dup1\n  dup1\n  mload\n  swap1\n  0x20\n  add\n  swap1\n  swap3\n  swap2\n  swap1\n  pop\n  pop\n  pop\n    /* \"Healthcare.sol\":477:489  addressEIP20 */\n  dup1\n    /* \"Healthcare.sol\":455:468  instanceEIP20 */\n  0x00\n  dup1\n    /* \"Healthcare.sol\":455:490  instanceEIP20 = EIP20(addressEIP20) */\n  0x0100\n  exp\n  dup2\n  sload\n  dup2\n  0xffffffffffffffffffffffffffffffffffffffff\n  mul\n  not\n  and\n  swap1\n  dup4\n  0xffffffffffffffffffffffffffffffffffffffff\n  and\n  mul\n  or\n  swap1\n  sstore\n  pop\n    /* \"Healthcare.sol\":511:521  msg.sender */\n  caller\n    /* \"Healthcare.sol\":501:508  manager */\n  0x01\n  0x00\n    /* \"Healthcare.sol\":501:521  manager = msg.sender */\n  0x0100\n  exp\n  dup2\n  sload\n  dup2\n  0xffffffffffffffffffffffffffffffffffffffff\n  mul\n  not\n  and\n  swap1\n  dup4\n  0xffffffffffffffffffffffffffffffffffffffff\n  and\n  mul\n  or\n  swap1\n  sstore\n  pop\n    /* \"Healthcare.sol\":410:529  constructor(address addressEIP20) {\r... */\n  pop\n    /* \"Healthcare.sol\":316:772  contract Healthcare {\r... */\n  dataSize(sub_0)\n  dup1\n  dataOffset(sub_0)\n  0x00\n  codecopy\n  0x00\n  return\nstop\n\nsub_0: assembly {\n        /* \"Healthcare.sol\":316:772  contract Healthcare {\r... */\n      mstore(0x40, 0x80)\n      jumpi(tag_1, lt(calldatasize, 0x04))\n      shr(0xe0, calldataload(0x00))\n      dup1\n      0x481c6a75\n      eq\n      tag_3\n      jumpi\n      dup1\n      0xf302163d\n      eq\n      tag_4\n      jumpi\n      jump(tag_2)\n    tag_1:\n      jumpi(tag_2, calldatasize)\n      stop\n    tag_2:\n      0x00\n      dup1\n      revert\n        /* \"Healthcare.sol\":375:397  address public manager */\n    tag_3:\n      callvalue\n      dup1\n      iszero\n      tag_7\n      jumpi\n      0x00\n      dup1\n      revert\n    tag_7:\n      pop\n      tag_8\n      tag_9\n      jump\t// in\n    tag_8:\n      mload(0x40)\n      dup1\n      dup3\n      0xffffffffffffffffffffffffffffffffffffffff\n      and\n      dup2\n      mstore\n      0x20\n      add\n      swap2\n      pop\n      pop\n      mload(0x40)\n      dup1\n      swap2\n      sub\n      swap1\n      return\n        /* \"Healthcare.sol\":588:763  function sendCoins() public returns (bool){        // function to send coins to user\r... */\n    tag_4:\n      callvalue\n      dup1\n      iszero\n      tag_10\n      jumpi\n      0x00\n      dup1\n      revert\n    tag_10:\n      pop\n      tag_11\n      tag_12\n      jump\t// in\n    tag_11:\n      mload(0x40)\n      dup1\n      dup3\n      iszero\n      iszero\n      dup2\n      mstore\n      0x20\n      add\n      swap2\n      pop\n      pop\n      mload(0x40)\n      dup1\n      swap2\n      sub\n      swap1\n      return\n        /* \"Healthcare.sol\":375:397  address public manager */\n    tag_9:\n      0x01\n      0x00\n      swap1\n      sload\n      swap1\n      0x0100\n      exp\n      swap1\n      div\n      0xffffffffffffffffffffffffffffffffffffffff\n      and\n      dup2\n      jump\t// out\n        /* \"Healthcare.sol\":588:763  function sendCoins() public returns (bool){        // function to send coins to user\r... */\n    tag_12:\n        /* \"Healthcare.sol\":625:629  bool */\n      0x00\n        /* \"Healthcare.sol\":682:692  uint coins */\n      dup1\n        /* \"Healthcare.sol\":695:696  5 */\n      0x05\n        /* \"Healthcare.sol\":682:696  uint coins = 5 */\n      swap1\n      pop\n        /* \"Healthcare.sol\":714:727  instanceEIP20 */\n      0x00\n      dup1\n      sload\n      swap1\n      0x0100\n      exp\n      swap1\n      div\n      0xffffffffffffffffffffffffffffffffffffffff\n      and\n        /* \"Healthcare.sol\":714:736  instanceEIP20.transfer */\n      0xffffffffffffffffffffffffffffffffffffffff\n      and\n      0xa9059cbb\n        /* \"Healthcare.sol\":737:747  msg.sender */\n      caller\n        /* \"Healthcare.sol\":749:754  coins */\n      dup4\n        /* \"Healthcare.sol\":714:755  instanceEIP20.transfer(msg.sender, coins) */\n      mload(0x40)\n      dup4\n      0xffffffff\n      and\n      0xe0\n      shl\n      dup2\n      mstore\n      0x04\n      add\n      dup1\n      dup4\n      0xffffffffffffffffffffffffffffffffffffffff\n      and\n      dup2\n      mstore\n      0x20\n      add\n      dup3\n      dup2\n      mstore\n      0x20\n      add\n      swap3\n      pop\n      pop\n      pop\n      0x20\n      mload(0x40)\n      dup1\n      dup4\n      sub\n      dup2\n      0x00\n      dup8\n      dup1\n      extcodesize\n      iszero\n      dup1\n      iszero\n      tag_14\n      jumpi\n      0x00\n      dup1\n      revert\n    tag_14:\n      pop\n      gas\n      call\n      iszero\n      dup1\n      iszero\n      tag_16\n      jumpi\n      returndatasize\n      0x00\n      dup1\n      returndatacopy\n      revert(0x00, returndatasize)\n    tag_16:\n      pop\n      pop\n      pop\n      pop\n      mload(0x40)\n      returndatasize\n      0x20\n      dup2\n      lt\n      iszero\n      tag_17\n      jumpi\n      0x00\n      dup1\n      revert\n    tag_17:\n      dup2\n      add\n      swap1\n      dup1\n      dup1\n      mload\n      swap1\n      0x20\n      add\n      swap1\n      swap3\n      swap2\n      swap1\n      pop\n      pop\n      pop\n        /* \"Healthcare.sol\":707:755  return instanceEIP20.transfer(msg.sender, coins) */\n      swap2\n      pop\n      pop\n        /* \"Healthcare.sol\":588:763  function sendCoins() public returns (bool){        // function to send coins to user\r... */\n      swap1\n      jump\t// out\n\n    auxdata: 0xa2646970667358221220f3e9a49b6afae9bd7e3b7c8df7eff70ca6c82a8eb7bdc5e1bc94259410f0f6ee64736f6c63430007050033\n}\n","bytecode":{"linkReferences":{},"object":"608060405234801561001057600080fd5b506040516102b13803806102b18339818101604052602081101561003357600080fd5b8101908080519060200190929190505050806000806101000a81548173ffffffffffffffffffffffffffffffffffffffff021916908373ffffffffffffffffffffffffffffffffffffffff16021790555033600160006101000a81548173ffffffffffffffffffffffffffffffffffffffff021916908373ffffffffffffffffffffffffffffffffffffffff160217905550506101dc806100d56000396000f3fe60806040526004361061002d5760003560e01c8063481c6a7514610039578063f302163d1461007a57610034565b3661003457005b600080fd5b34801561004557600080fd5b5061004e6100a7565b604051808273ffffffffffffffffffffffffffffffffffffffff16815260200191505060405180910390f35b34801561008657600080fd5b5061008f6100cd565b60405180821515815260200191505060405180910390f35b600160009054906101000a900473ffffffffffffffffffffffffffffffffffffffff1681565b6000806005905060008054906101000a900473ffffffffffffffffffffffffffffffffffffffff1673ffffffffffffffffffffffffffffffffffffffff1663a9059cbb33836040518363ffffffff1660e01b8152600401808373ffffffffffffffffffffffffffffffffffffffff16815260200182815260200192505050602060405180830381600087803b15801561016557600080fd5b505af1158015610179573d6000803e3d6000fd5b505050506040513d602081101561018f57600080fd5b81019080805190602001909291905050509150509056fea2646970667358221220f3e9a49b6afae9bd7e3b7c8df7eff70ca6c82a8eb7bdc5e1bc94259410f0f6ee64736f6c63430007050033","opcodes":"PUSH1 0x80 PUSH1 0x40 MSTORE CALLVALUE DUP1 ISZERO PUSH2 0x10 JUMPI PUSH1 0x0 DUP1 REVERT JUMPDEST POP PUSH1 0x40 MLOAD PUSH2 0x2B1 CODESIZE SUB DUP1 PUSH2 0x2B1 DUP4 CODECOPY DUP2 DUP2 ADD PUSH1 0x40 MSTORE PUSH1 0x20 DUP2 LT ISZERO PUSH2 0x33 JUMPI PUSH1 0x0 DUP1 REVERT JUMPDEST DUP2 ADD SWAP1 DUP1 DUP1 MLOAD SWAP1 PUSH1 0x20 ADD SWAP1 SWAP3 SWAP2 SWAP1 POP POP POP DUP1 PUSH1 0x0 DUP1 PUSH2 0x100 EXP DUP2 SLOAD DUP2 PUSH20 0xFFFFFFFFFFFFFFFFFFFFFFFFFFFFFFFFFFFFFFFF MUL NOT AND SWAP1 DUP4 PUSH20 0xFFFFFFFFFFFFFFFFFFFFFFFFFFFFFFFFFFFFFFFF AND MUL OR SWAP1 SSTORE POP CALLER PUSH1 0x1 PUSH1 0x0 PUSH2 0x100 EXP DUP2 SLOAD DUP2 PUSH20 0xFFFFFFFFFFFFFFFFFFFFFFFFFFFFFFFFFFFFFFFF MUL NOT AND SWAP1 DUP4 PUSH20 0xFFFFFFFFFFFFFFFFFFFFFFFFFFFFFFFFFFFFFFFF AND MUL OR SWAP1 SSTORE POP POP PUSH2 0x1DC DUP1 PUSH2 0xD5 PUSH1 0x0 CODECOPY PUSH1 0x0 RETURN INVALID PUSH1 0x80 PUSH1 0x40 MSTORE PUSH1 0x4 CALLDATASIZE LT PUSH2 0x2D JUMPI PUSH1 0x0 CALLDATALOAD PUSH1 0xE0 SHR DUP1 PUSH4 0x481C6A75 EQ PUSH2 0x39 JUMPI DUP1 PUSH4 0xF302163D EQ PUSH2 0x7A JUMPI PUSH2 0x34 JUMP JUMPDEST CALLDATASIZE PUSH2 0x34 JUMPI STOP JUMPDEST PUSH1 0x0 DUP1 REVERT JUMPDEST CALLVALUE DUP1 ISZERO PUSH2 0x45 JUMPI PUSH1 0x0 DUP1 REVERT JUMPDEST POP PUSH2 0x4E PUSH2 0xA7 JUMP JUMPDEST PUSH1 0x40 MLOAD DUP1 DUP3 PUSH20 0xFFFFFFFFFFFFFFFFFFFFFFFFFFFFFFFFFFFFFFFF AND DUP2 MSTORE PUSH1 0x20 ADD SWAP2 POP POP PUSH1 0x40 MLOAD DUP1 SWAP2 SUB SWAP1 RETURN JUMPDEST CALLVALUE DUP1 ISZERO PUSH2 0x86 JUMPI PUSH1 0x0 DUP1 REVERT JUMPDEST POP PUSH2 0x8F PUSH2 0xCD JUMP JUMPDEST PUSH1 0x40 MLOAD DUP1 DUP3 ISZERO ISZERO DUP2 MSTORE PUSH1 0x20 ADD SWAP2 POP POP PUSH1 0x40 MLOAD DUP1 SWAP2 SUB SWAP1 RETURN JUMPDEST PUSH1 0x1 PUSH1 0x0 SWAP1 SLOAD SWAP1 PUSH2 0x100 EXP SWAP1 DIV PUSH20 0xFFFFFFFFFFFFFFFFFFFFFFFFFFFFFFFFFFFFFFFF AND DUP2 JUMP JUMPDEST PUSH1 0x0 DUP1 PUSH1 0x5 SWAP1 POP PUSH1 0x0 DUP1 SLOAD SWAP1 PUSH2 0x100 EXP SWAP1 DIV PUSH20 0xFFFFFFFFFFFFFFFFFFFFFFFFFFFFFFFFFFFFFFFF AND PUSH20 0xFFFFFFFFFFFFFFFFFFFFFFFFFFFFFFFFFFFFFFFF AND PUSH4 0xA9059CBB CALLER DUP4 PUSH1 0x40 MLOAD DUP4 PUSH4 0xFFFFFFFF AND PUSH1 0xE0 SHL DUP2 MSTORE PUSH1 0x4 ADD DUP1 DUP4 PUSH20 0xFFFFFFFFFFFFFFFFFFFFFFFFFFFFFFFFFFFFFFFF AND DUP2 MSTORE PUSH1 0x20 ADD DUP3 DUP2 MSTORE PUSH1 0x20 ADD SWAP3 POP POP POP PUSH1 0x20 PUSH1 0x40 MLOAD DUP1 DUP4 SUB DUP2 PUSH1 0x0 DUP8 DUP1 EXTCODESIZE ISZERO DUP1 ISZERO PUSH2 0x165 JUMPI PUSH1 0x0 DUP1 REVERT JUMPDEST POP GAS CALL ISZERO DUP1 ISZERO PUSH2 0x179 JUMPI RETURNDATASIZE PUSH1 0x0 DUP1 RETURNDATACOPY RETURNDATASIZE PUSH1 0x0 REVERT JUMPDEST POP POP POP POP PUSH1 0x40 MLOAD RETURNDATASIZE PUSH1 0x20 DUP2 LT ISZERO PUSH2 0x18F JUMPI PUSH1 0x0 DUP1 REVERT JUMPDEST DUP2 ADD SWAP1 DUP1 DUP1 MLOAD SWAP1 PUSH1 0x20 ADD SWAP1 SWAP3 SWAP2 SWAP1 POP POP POP SWAP2 POP POP SWAP1 JUMP INVALID LOG2 PUSH5 0x6970667358 0x22 SLT KECCAK256 RETURN 0xE9 LOG4 SWAP12 PUSH11 0xFAE9BD7E3B7C8DF7EFF70C 0xA6 0xC8 0x2A DUP15 0xB7 0xBD 0xC5 0xE1 0xBC SWAP5 0x25 SWAP5 LT CREATE 0xF6 0xEE PUSH5 0x736F6C6343 STOP SMOD SDIV STOP CALLER "},"gasEstimates":{"creation":{"codeDepositCost":"95200","executionCost":"infinite","totalCost":"infinite"},"external":{"manager()":"1025","sendCoins()":"infinite"}},"methodIdentifiers":{"manager()":"481c6a75","sendCoins()":"f302163d"}},"storageLayout":{"storage":[{"astId":22,"contract":"Healthcare.sol:Healthcare","label":"instanceEIP20","offset":0,"slot":"0","type":"t_contract(EIP20)20"},{"astId":24,"contract":"Healthcare.sol:Healthcare","label":"manager","offset":0,"slot":"1","type":"t_address"}],"types":{"t_address":{"encoding":"inplace","label":"address","numberOfBytes":"20"},"t_contract(EIP20)20":{"encoding":"inplace","label":"contract EIP20","numberOfBytes":"20"}}},"userdoc":{"kind":"user","methods":{},"version":1}}