{"abi":[{"inputs":[{"internalType":"uint256","name":"_initialAmount","type":"uint256"},{"internalType":"string","name":"_tokenName","type":"string"},{"internalType":"uint8","name":"_decimalUnits","type":"uint8"},{"internalType":"string","name":"_tokenSymbol","type":"string"}],"stateMutability":"nonpayable","type":"constructor"},{"anonymous":false,"inputs":[{"indexed":true,"internalType":"address","name":"_owner","type":"address"},{"indexed":true,"internalType":"address","name":"_spender","type":"address"},{"indexed":false,"internalType":"uint256","name":"_value","type":"uint256"}],"name":"Approval","type":"event"},{"anonymous":false,"inputs":[{"indexed":true,"internalType":"address","name":"_from","type":"address"},{"indexed":true,"internalType":"address","name":"_to","type":"address"},{"indexed":false,"internalType":"uint256","name":"_value","type":"uint256"}],"name":"Transfer","type":"event"},{"inputs":[{"internalType":"address","name":"_owner","type":"address"},{"internalType":"address","name":"_spender","type":"address"}],"name":"allowance","outputs":[{"internalType":"uint256","name":"remaining","type":"uint256"}],"stateMutability":"view","type":"function"},{"inputs":[{"internalType":"address","name":"","type":"address"},{"internalType":"address","name":"","type":"address"}],"name":"allowed","outputs":[{"internalType":"uint256","name":"","type":"uint256"}],"stateMutability":"view","type":"function"},{"inputs":[{"internalType":"address","name":"_spender","type":"address"},{"internalType":"uint256","name":"_value","type":"uint256"}],"name":"approve","outputs":[{"internalType":"bool","name":"success","type":"bool"}],"stateMutability":"nonpayable","type":"function"},{"inputs":[{"internalType":"address","name":"_owner","type":"address"}],"name":"balanceOf","outputs":[{"internalType":"uint256","name":"balance","type":"uint256"}],"stateMutability":"view","type":"function"},{"inputs":[{"internalType":"address","name":"","type":"address"}],"name":"balances","outputs":[{"internalType":"uint256","name":"","type":"uint256"}],"stateMutability":"view","type":"function"},{"inputs":[{"internalType":"uint256","name":"_value","type":"uint256"}],"name":"convertCoinsToEther","outputs":[],"stateMutability":"nonpayable","type":"function"},{"inputs":[],"name":"decimals","outputs":[{"internalType":"uint8","name":"","type":"uint8"}],"stateMutability":"view","type":"function"},{"inputs":[],"name":"manager","outputs":[{"internalType":"address","name":"","type":"address"}],"stateMutability":"view","type":"function"},{"inputs":[{"internalType":"uint256","name":"newCoins","type":"uint256"}],"name":"mintCoin","outputs":[],"stateMutability":"nonpayable","type":"function"},{"inputs":[],"name":"name","outputs":[{"internalType":"string","name":"","type":"string"}],"stateMutability":"view","type":"function"},{"inputs":[],"name":"symbol","outputs":[{"internalType":"string","name":"","type":"string"}],"stateMutability":"view","type":"function"},{"inputs":[],"name":"totalSupply","outputs":[{"internalType":"uint256","name":"","type":"uint256"}],"stateMutability":"view","type":"function"},{"inputs":[{"internalType":"address","name":"_to","type":"address"},{"internalType":"uint256","name":"_value","type":"uint256"}],"name":"transfer","outputs":[{"internalType":"bool","name":"success","type":"bool"}],"stateMutability":"nonpayable","type":"function"},{"inputs":[{"internalType":"address","name":"_from","type":"address"},{"internalType":"address","name":"_to","type":"address"},{"internalType":"uint256","name":"_value","type":"uint256"}],"name":"transferFrom","outputs":[{"internalType":"bool","name":"success","type":"bool"}],"stateMutability":"nonpayable","type":"function"},{"stateMutability":"payable","type":"receive"}],"devdoc":{"kind":"dev","methods":{},"version":1},"evm":{"assembly":"    /* \"EIP20.sol\":67:3574  contract EIP20 {\r... */\n  mstore(0x40, 0x80)\n    /* \"EIP20.sol\":1005:1696  constructor(\r... */\n  callvalue\n  dup1\n  iszero\n  tag_1\n  jumpi\n  0x00\n  dup1\n  revert\ntag_1:\n  pop\n  mload(0x40)\n  sub(codesize, bytecodeSize)\n  dup1\n  bytecodeSize\n  dup4\n  codecopy\n  dup2\n  dup2\n  add\n  0x40\n  mstore\n  0x80\n  dup2\n  lt\n  iszero\n  tag_2\n  jumpi\n  0x00\n  dup1\n  revert\ntag_2:\n  dup2\n  add\n  swap1\n  dup1\n  dup1\n  mload\n  swap1\n  0x20\n  add\n  swap1\n  swap3\n  swap2\n  swap1\n  dup1\n  mload\n  mload(0x40)\n  swap4\n  swap3\n  swap2\n  swap1\n  dup5\n  0x0100000000\n  dup3\n  gt\n  iszero\n  tag_3\n  jumpi\n  0x00\n  dup1\n  revert\ntag_3:\n  dup4\n  dup3\n  add\n  swap2\n  pop\n  0x20\n  dup3\n  add\n  dup6\n  dup2\n  gt\n  iszero\n  tag_4\n  jumpi\n  0x00\n  dup1\n  revert\ntag_4:\n  dup3\n  mload\n  dup7\n  0x01\n  dup3\n  mul\n  dup4\n  add\n  gt\n  0x0100000000\n  dup3\n  gt\n  or\n  iszero\n  tag_5\n  jumpi\n  0x00\n  dup1\n  revert\ntag_5:\n  dup1\n  dup4\n  mstore\n  0x20\n  dup4\n  add\n  swap3\n  pop\n  pop\n  pop\n  swap1\n  dup1\n  mload\n  swap1\n  0x20\n  add\n  swap1\n  dup1\n  dup4\n  dup4\n  0x00\ntag_6:\n  dup4\n  dup2\n  lt\n  iszero\n  tag_8\n  jumpi\n  dup1\n  dup3\n  add\n  mload\n  dup2\n  dup5\n  add\n  mstore\n  0x20\n  dup2\n  add\n  swap1\n  pop\n  jump(tag_6)\ntag_8:\n  pop\n  pop\n  pop\n  pop\n  swap1\n  pop\n  swap1\n  dup2\n  add\n  swap1\n  0x1f\n  and\n  dup1\n  iszero\n  tag_9\n  jumpi\n  dup1\n  dup3\n  sub\n  dup1\n  mload\n  0x01\n  dup4\n  0x20\n  sub\n  0x0100\n  exp\n  sub\n  not\n  and\n  dup2\n  mstore\n  0x20\n  add\n  swap2\n  pop\ntag_9:\n  pop\n  0x40\n  mstore\n  0x20\n  add\n  dup1\n  mload\n  swap1\n  0x20\n  add\n  swap1\n  swap3\n  swap2\n  swap1\n  dup1\n  mload\n  mload(0x40)\n  swap4\n  swap3\n  swap2\n  swap1\n  dup5\n  0x0100000000\n  dup3\n  gt\n  iszero\n  tag_10\n  jumpi\n  0x00\n  dup1\n  revert\ntag_10:\n  dup4\n  dup3\n  add\n  swap2\n  pop\n  0x20\n  dup3\n  add\n  dup6\n  dup2\n  gt\n  iszero\n  tag_11\n  jumpi\n  0x00\n  dup1\n  revert\ntag_11:\n  dup3\n  mload\n  dup7\n  0x01\n  dup3\n  mul\n  dup4\n  add\n  gt\n  0x0100000000\n  dup3\n  gt\n  or\n  iszero\n  tag_12\n  jumpi\n  0x00\n  dup1\n  revert\ntag_12:\n  dup1\n  dup4\n  mstore\n  0x20\n  dup4\n  add\n  swap3\n  pop\n  pop\n  pop\n  swap1\n  dup1\n  mload\n  swap1\n  0x20\n  add\n  swap1\n  dup1\n  dup4\n  dup4\n  0x00\ntag_13:\n  dup4\n  dup2\n  lt\n  iszero\n  tag_15\n  jumpi\n  dup1\n  dup3\n  add\n  mload\n  dup2\n  dup5\n  add\n  mstore\n  0x20\n  dup2\n  add\n  swap1\n  pop\n  jump(tag_13)\ntag_15:\n  pop\n  pop\n  pop\n  pop\n  swap1\n  pop\n  swap1\n  dup2\n  add\n  swap1\n  0x1f\n  and\n  dup1\n  iszero\n  tag_16\n  jumpi\n  dup1\n  dup3\n  sub\n  dup1\n  mload\n  0x01\n  dup4\n  0x20\n  sub\n  0x0100\n  exp\n  sub\n  not\n  and\n  dup2\n  mstore\n  0x20\n  add\n  swap2\n  pop\ntag_16:\n  pop\n  0x40\n  mstore\n  pop\n  pop\n  pop\n    /* \"EIP20.sol\":1187:1197  msg.sender */\n  caller\n    /* \"EIP20.sol\":1177:1184  manager */\n  0x06\n  0x00\n    /* \"EIP20.sol\":1177:1197  manager = msg.sender */\n  0x0100\n  exp\n  dup2\n  sload\n  dup2\n  0xffffffffffffffffffffffffffffffffffffffff\n  mul\n  not\n  and\n  swap1\n  dup4\n  0xffffffffffffffffffffffffffffffffffffffff\n  and\n  mul\n  or\n  swap1\n  sstore\n  pop\n    /* \"EIP20.sol\":1231:1245  _initialAmount */\n  dup4\n    /* \"EIP20.sol\":1208:1216  balances */\n  0x01\n    /* \"EIP20.sol\":1208:1228  balances[msg.sender] */\n  0x00\n    /* \"EIP20.sol\":1217:1227  msg.sender */\n  caller\n    /* \"EIP20.sol\":1208:1228  balances[msg.sender] */\n  0xffffffffffffffffffffffffffffffffffffffff\n  and\n  0xffffffffffffffffffffffffffffffffffffffff\n  and\n  dup2\n  mstore\n  0x20\n  add\n  swap1\n  dup2\n  mstore\n  0x20\n  add\n  0x00\n  keccak256\n    /* \"EIP20.sol\":1208:1245  balances[msg.sender] = _initialAmount */\n  dup2\n  swap1\n  sstore\n  pop\n    /* \"EIP20.sol\":1323:1337  _initialAmount */\n  dup4\n    /* \"EIP20.sol\":1309:1320  totalSupply */\n  0x00\n    /* \"EIP20.sol\":1309:1337  totalSupply = _initialAmount */\n  dup2\n  swap1\n  sstore\n  pop\n    /* \"EIP20.sol\":1401:1411  _tokenName */\n  dup3\n    /* \"EIP20.sol\":1394:1398  name */\n  0x03\n    /* \"EIP20.sol\":1394:1411  name = _tokenName */\n  swap1\n  dup1\n  mload\n  swap1\n  0x20\n  add\n  swap1\n  tag_19\n  swap3\n  swap2\n  swap1\n  tag_20\n  jump\t// in\ntag_19:\n  pop\n    /* \"EIP20.sol\":1504:1517  _decimalUnits */\n  dup2\n    /* \"EIP20.sol\":1493:1501  decimals */\n  0x04\n  0x00\n    /* \"EIP20.sol\":1493:1517  decimals = _decimalUnits */\n  0x0100\n  exp\n  dup2\n  sload\n  dup2\n  0xff\n  mul\n  not\n  and\n  swap1\n  dup4\n  0xff\n  and\n  mul\n  or\n  swap1\n  sstore\n  pop\n    /* \"EIP20.sol\":1607:1619  _tokenSymbol */\n  dup1\n    /* \"EIP20.sol\":1598:1604  symbol */\n  0x05\n    /* \"EIP20.sol\":1598:1619  symbol = _tokenSymbol */\n  swap1\n  dup1\n  mload\n  swap1\n  0x20\n  add\n  swap1\n  tag_21\n  swap3\n  swap2\n  swap1\n  tag_20\n  jump\t// in\ntag_21:\n  pop\n    /* \"EIP20.sol\":1005:1696  constructor(\r... */\n  pop\n  pop\n  pop\n  pop\n    /* \"EIP20.sol\":67:3574  contract EIP20 {\r... */\n  jump(tag_22)\ntag_20:\n  dup3\n  dup1\n  sload\n  0x01\n  dup2\n  0x01\n  and\n  iszero\n  0x0100\n  mul\n  sub\n  and\n  0x02\n  swap1\n  div\n  swap1\n  0x00\n  mstore\n  keccak256(0x00, 0x20)\n  swap1\n  0x1f\n  add\n  0x20\n  swap1\n  div\n  dup2\n  add\n  swap3\n  dup3\n  tag_24\n  jumpi\n  0x00\n  dup6\n  sstore\n  jump(tag_23)\ntag_24:\n  dup3\n  0x1f\n  lt\n  tag_25\n  jumpi\n  dup1\n  mload\n  not(0xff)\n  and\n  dup4\n  dup1\n  add\n  or\n  dup6\n  sstore\n  jump(tag_23)\ntag_25:\n  dup3\n  dup1\n  add\n  0x01\n  add\n  dup6\n  sstore\n  dup3\n  iszero\n  tag_23\n  jumpi\n  swap2\n  dup3\n  add\ntag_26:\n  dup3\n  dup2\n  gt\n  iszero\n  tag_27\n  jumpi\n  dup3\n  mload\n  dup3\n  sstore\n  swap2\n  0x20\n  add\n  swap2\n  swap1\n  0x01\n  add\n  swap1\n  jump(tag_26)\ntag_27:\ntag_23:\n  pop\n  swap1\n  pop\n  tag_28\n  swap2\n  swap1\n  tag_29\n  jump\t// in\ntag_28:\n  pop\n  swap1\n  jump\t// out\ntag_29:\ntag_30:\n  dup1\n  dup3\n  gt\n  iszero\n  tag_31\n  jumpi\n  0x00\n  dup2\n  0x00\n  swap1\n  sstore\n  pop\n  0x01\n  add\n  jump(tag_30)\ntag_31:\n  pop\n  swap1\n  jump\t// out\ntag_22:\n  dataSize(sub_0)\n  dup1\n  dataOffset(sub_0)\n  0x00\n  codecopy\n  0x00\n  return\nstop\n\nsub_0: assembly {\n        /* \"EIP20.sol\":67:3574  contract EIP20 {\r... */\n      mstore(0x40, 0x80)\n      jumpi(tag_1, lt(calldatasize, 0x04))\n      shr(0xe0, calldataload(0x00))\n      dup1\n      0x481c6a75\n      gt\n      tag_17\n      jumpi\n      dup1\n      0x95d89b41\n      gt\n      tag_18\n      jumpi\n      dup1\n      0x95d89b41\n      eq\n      tag_13\n      jumpi\n      dup1\n      0xa9059cbb\n      eq\n      tag_14\n      jumpi\n      dup1\n      0xdd62ed3e\n      eq\n      tag_15\n      jumpi\n      dup1\n      0xf3f7d04f\n      eq\n      tag_16\n      jumpi\n      jump(tag_2)\n    tag_18:\n      dup1\n      0x481c6a75\n      eq\n      tag_10\n      jumpi\n      dup1\n      0x5c658165\n      eq\n      tag_11\n      jumpi\n      dup1\n      0x70a08231\n      eq\n      tag_12\n      jumpi\n      jump(tag_2)\n    tag_17:\n      dup1\n      0x1b166792\n      gt\n      tag_19\n      jumpi\n      dup1\n      0x1b166792\n      eq\n      tag_6\n      jumpi\n      dup1\n      0x23b872dd\n      eq\n      tag_7\n      jumpi\n      dup1\n      0x27e235e3\n      eq\n      tag_8\n      jumpi\n      dup1\n      0x313ce567\n      eq\n      tag_9\n      jumpi\n      jump(tag_2)\n    tag_19:\n      dup1\n      0x06fdde03\n      eq\n      tag_3\n      jumpi\n      dup1\n      0x095ea7b3\n      eq\n      tag_4\n      jumpi\n      dup1\n      0x18160ddd\n      eq\n      tag_5\n      jumpi\n      jump(tag_2)\n    tag_1:\n      jumpi(tag_2, calldatasize)\n      stop\n    tag_2:\n      0x00\n      dup1\n      revert\n        /* \"EIP20.sol\":763:781  string public name */\n    tag_3:\n      callvalue\n      dup1\n      iszero\n      tag_22\n      jumpi\n      0x00\n      dup1\n      revert\n    tag_22:\n      pop\n      tag_23\n      tag_24\n      jump\t// in\n    tag_23:\n      mload(0x40)\n      dup1\n      dup1\n      0x20\n      add\n      dup3\n      dup2\n      sub\n      dup3\n      mstore\n      dup4\n      dup2\n      dup2\n      mload\n      dup2\n      mstore\n      0x20\n      add\n      swap2\n      pop\n      dup1\n      mload\n      swap1\n      0x20\n      add\n      swap1\n      dup1\n      dup4\n      dup4\n      0x00\n    tag_25:\n      dup4\n      dup2\n      lt\n      iszero\n      tag_27\n      jumpi\n      dup1\n      dup3\n      add\n      mload\n      dup2\n      dup5\n      add\n      mstore\n      0x20\n      dup2\n      add\n      swap1\n      pop\n      jump(tag_25)\n    tag_27:\n      pop\n      pop\n      pop\n      pop\n      swap1\n      pop\n      swap1\n      dup2\n      add\n      swap1\n      0x1f\n      and\n      dup1\n      iszero\n      tag_28\n      jumpi\n      dup1\n      dup3\n      sub\n      dup1\n      mload\n      0x01\n      dup4\n      0x20\n      sub\n      0x0100\n      exp\n      sub\n      not\n      and\n      dup2\n      mstore\n      0x20\n      add\n      swap2\n      pop\n    tag_28:\n      pop\n      swap3\n      pop\n      pop\n      pop\n      mload(0x40)\n      dup1\n      swap2\n      sub\n      swap1\n      return\n        /* \"EIP20.sol\":2683:2943  function approve(address _spender, uint256 _value) public returns (bool success) {\r... */\n    tag_4:\n      callvalue\n      dup1\n      iszero\n      tag_29\n      jumpi\n      0x00\n      dup1\n      revert\n    tag_29:\n      pop\n      tag_30\n      0x04\n      dup1\n      calldatasize\n      sub\n      0x40\n      dup2\n      lt\n      iszero\n      tag_31\n      jumpi\n      0x00\n      dup1\n      revert\n    tag_31:\n      dup2\n      add\n      swap1\n      dup1\n      dup1\n      calldataload\n      0xffffffffffffffffffffffffffffffffffffffff\n      and\n      swap1\n      0x20\n      add\n      swap1\n      swap3\n      swap2\n      swap1\n      dup1\n      calldataload\n      swap1\n      0x20\n      add\n      swap1\n      swap3\n      swap2\n      swap1\n      pop\n      pop\n      pop\n      tag_32\n      jump\t// in\n    tag_30:\n      mload(0x40)\n      dup1\n      dup3\n      iszero\n      iszero\n      dup2\n      mstore\n      0x20\n      add\n      swap2\n      pop\n      pop\n      mload(0x40)\n      dup1\n      swap2\n      sub\n      swap1\n      return\n        /* \"EIP20.sol\":91:117  uint256 public totalSupply */\n    tag_5:\n      callvalue\n      dup1\n      iszero\n      tag_33\n      jumpi\n      0x00\n      dup1\n      revert\n    tag_33:\n      pop\n      tag_34\n      tag_35\n      jump\t// in\n    tag_34:\n      mload(0x40)\n      dup1\n      dup3\n      dup2\n      mstore\n      0x20\n      add\n      swap2\n      pop\n      pop\n      mload(0x40)\n      dup1\n      swap2\n      sub\n      swap1\n      return\n        /* \"EIP20.sol\":3321:3565  function convertCoinsToEther(uint _value) public {\r... */\n    tag_6:\n      callvalue\n      dup1\n      iszero\n      tag_36\n      jumpi\n      0x00\n      dup1\n      revert\n    tag_36:\n      pop\n      tag_37\n      0x04\n      dup1\n      calldatasize\n      sub\n      0x20\n      dup2\n      lt\n      iszero\n      tag_38\n      jumpi\n      0x00\n      dup1\n      revert\n    tag_38:\n      dup2\n      add\n      swap1\n      dup1\n      dup1\n      calldataload\n      swap1\n      0x20\n      add\n      swap1\n      swap3\n      swap2\n      swap1\n      pop\n      pop\n      pop\n      tag_39\n      jump\t// in\n    tag_37:\n      stop\n        /* \"EIP20.sol\":2039:2552  function transferFrom(address _from, address _to, uint256 _value) public returns (bool success) {\r... */\n    tag_7:\n      callvalue\n      dup1\n      iszero\n      tag_40\n      jumpi\n      0x00\n      dup1\n      revert\n    tag_40:\n      pop\n      tag_41\n      0x04\n      dup1\n      calldatasize\n      sub\n      0x60\n      dup2\n      lt\n      iszero\n      tag_42\n      jumpi\n      0x00\n      dup1\n      revert\n    tag_42:\n      dup2\n      add\n      swap1\n      dup1\n      dup1\n      calldataload\n      0xffffffffffffffffffffffffffffffffffffffff\n      and\n      swap1\n      0x20\n      add\n      swap1\n      swap3\n      swap2\n      swap1\n      dup1\n      calldataload\n      0xffffffffffffffffffffffffffffffffffffffff\n      and\n      swap1\n      0x20\n      add\n      swap1\n      swap3\n      swap2\n      swap1\n      dup1\n      calldataload\n      swap1\n      0x20\n      add\n      swap1\n      swap3\n      swap2\n      swap1\n      pop\n      pop\n      pop\n      tag_43\n      jump\t// in\n    tag_41:\n      mload(0x40)\n      dup1\n      dup3\n      iszero\n      iszero\n      dup2\n      mstore\n      0x20\n      add\n      swap2\n      pop\n      pop\n      mload(0x40)\n      dup1\n      swap2\n      sub\n      swap1\n      return\n        /* \"EIP20.sol\":180:224  mapping (address => uint256) public balances */\n    tag_8:\n      callvalue\n      dup1\n      iszero\n      tag_44\n      jumpi\n      0x00\n      dup1\n      revert\n    tag_44:\n      pop\n      tag_45\n      0x04\n      dup1\n      calldatasize\n      sub\n      0x20\n      dup2\n      lt\n      iszero\n      tag_46\n      jumpi\n      0x00\n      dup1\n      revert\n    tag_46:\n      dup2\n      add\n      swap1\n      dup1\n      dup1\n      calldataload\n      0xffffffffffffffffffffffffffffffffffffffff\n      and\n      swap1\n      0x20\n      add\n      swap1\n      swap3\n      swap2\n      swap1\n      pop\n      pop\n      pop\n      tag_47\n      jump\t// in\n    tag_45:\n      mload(0x40)\n      dup1\n      dup3\n      dup2\n      mstore\n      0x20\n      add\n      swap2\n      pop\n      pop\n      mload(0x40)\n      dup1\n      swap2\n      sub\n      swap1\n      return\n        /* \"EIP20.sol\":835:856  uint8 public decimals */\n    tag_9:\n      callvalue\n      dup1\n      iszero\n      tag_48\n      jumpi\n      0x00\n      dup1\n      revert\n    tag_48:\n      pop\n      tag_49\n      tag_50\n      jump\t// in\n    tag_49:\n      mload(0x40)\n      dup1\n      dup3\n      0xff\n      and\n      dup2\n      mstore\n      0x20\n      add\n      swap2\n      pop\n      pop\n      mload(0x40)\n      dup1\n      swap2\n      sub\n      swap1\n      return\n        /* \"EIP20.sol\":974:996  address public manager */\n    tag_10:\n      callvalue\n      dup1\n      iszero\n      tag_51\n      jumpi\n      0x00\n      dup1\n      revert\n    tag_51:\n      pop\n      tag_52\n      tag_53\n      jump\t// in\n    tag_52:\n      mload(0x40)\n      dup1\n      dup3\n      0xffffffffffffffffffffffffffffffffffffffff\n      and\n      dup2\n      mstore\n      0x20\n      add\n      swap2\n      pop\n      pop\n      mload(0x40)\n      dup1\n      swap2\n      sub\n      swap1\n      return\n        /* \"EIP20.sol\":231:295  mapping (address => mapping (address => uint256)) public allowed */\n    tag_11:\n      callvalue\n      dup1\n      iszero\n      tag_54\n      jumpi\n      0x00\n      dup1\n      revert\n    tag_54:\n      pop\n      tag_55\n      0x04\n      dup1\n      calldatasize\n      sub\n      0x40\n      dup2\n      lt\n      iszero\n      tag_56\n      jumpi\n      0x00\n      dup1\n      revert\n    tag_56:\n      dup2\n      add\n      swap1\n      dup1\n      dup1\n      calldataload\n      0xffffffffffffffffffffffffffffffffffffffff\n      and\n      swap1\n      0x20\n      add\n      swap1\n      swap3\n      swap2\n      swap1\n      dup1\n      calldataload\n      0xffffffffffffffffffffffffffffffffffffffff\n      and\n      swap1\n      0x20\n      add\n      swap1\n      swap3\n      swap2\n      swap1\n      pop\n      pop\n      pop\n      tag_57\n      jump\t// in\n    tag_55:\n      mload(0x40)\n      dup1\n      dup3\n      dup2\n      mstore\n      0x20\n      add\n      swap2\n      pop\n      pop\n      mload(0x40)\n      dup1\n      swap2\n      sub\n      swap1\n      return\n        /* \"EIP20.sol\":2560:2675  function balanceOf(address _owner) public view returns (uint256 balance) {\r... */\n    tag_12:\n      callvalue\n      dup1\n      iszero\n      tag_58\n      jumpi\n      0x00\n      dup1\n      revert\n    tag_58:\n      pop\n      tag_59\n      0x04\n      dup1\n      calldatasize\n      sub\n      0x20\n      dup2\n      lt\n      iszero\n      tag_60\n      jumpi\n      0x00\n      dup1\n      revert\n    tag_60:\n      dup2\n      add\n      swap1\n      dup1\n      dup1\n      calldataload\n      0xffffffffffffffffffffffffffffffffffffffff\n      and\n      swap1\n      0x20\n      add\n      swap1\n      swap3\n      swap2\n      swap1\n      pop\n      pop\n      pop\n      tag_61\n      jump\t// in\n    tag_59:\n      mload(0x40)\n      dup1\n      dup3\n      dup2\n      mstore\n      0x20\n      add\n      swap2\n      pop\n      pop\n      mload(0x40)\n      dup1\n      swap2\n      sub\n      swap1\n      return\n        /* \"EIP20.sol\":907:927  string public symbol */\n    tag_13:\n      callvalue\n      dup1\n      iszero\n      tag_62\n      jumpi\n      0x00\n      dup1\n      revert\n    tag_62:\n      pop\n      tag_63\n      tag_64\n      jump\t// in\n    tag_63:\n      mload(0x40)\n      dup1\n      dup1\n      0x20\n      add\n      dup3\n      dup2\n      sub\n      dup3\n      mstore\n      dup4\n      dup2\n      dup2\n      mload\n      dup2\n      mstore\n      0x20\n      add\n      swap2\n      pop\n      dup1\n      mload\n      swap1\n      0x20\n      add\n      swap1\n      dup1\n      dup4\n      dup4\n      0x00\n    tag_65:\n      dup4\n      dup2\n      lt\n      iszero\n      tag_67\n      jumpi\n      dup1\n      dup3\n      add\n      mload\n      dup2\n      dup5\n      add\n      mstore\n      0x20\n      dup2\n      add\n      swap1\n      pop\n      jump(tag_65)\n    tag_67:\n      pop\n      pop\n      pop\n      pop\n      swap1\n      pop\n      swap1\n      dup2\n      add\n      swap1\n      0x1f\n      and\n      dup1\n      iszero\n      tag_68\n      jumpi\n      dup1\n      dup3\n      sub\n      dup1\n      mload\n      0x01\n      dup4\n      0x20\n      sub\n      0x0100\n      exp\n      sub\n      not\n      and\n      dup2\n      mstore\n      0x20\n      add\n      swap2\n      pop\n    tag_68:\n      pop\n      swap3\n      pop\n      pop\n      pop\n      mload(0x40)\n      dup1\n      swap2\n      sub\n      swap1\n      return\n        /* \"EIP20.sol\":1704:2031  function transfer(address _to, uint256 _value) public returns (bool success) {\r... */\n    tag_14:\n      callvalue\n      dup1\n      iszero\n      tag_69\n      jumpi\n      0x00\n      dup1\n      revert\n    tag_69:\n      pop\n      tag_70\n      0x04\n      dup1\n      calldatasize\n      sub\n      0x40\n      dup2\n      lt\n      iszero\n      tag_71\n      jumpi\n      0x00\n      dup1\n      revert\n    tag_71:\n      dup2\n      add\n      swap1\n      dup1\n      dup1\n      calldataload\n      0xffffffffffffffffffffffffffffffffffffffff\n      and\n      swap1\n      0x20\n      add\n      swap1\n      swap3\n      swap2\n      swap1\n      dup1\n      calldataload\n      swap1\n      0x20\n      add\n      swap1\n      swap3\n      swap2\n      swap1\n      pop\n      pop\n      pop\n      tag_72\n      jump\t// in\n    tag_70:\n      mload(0x40)\n      dup1\n      dup3\n      iszero\n      iszero\n      dup2\n      mstore\n      0x20\n      add\n      swap2\n      pop\n      pop\n      mload(0x40)\n      dup1\n      swap2\n      sub\n      swap1\n      return\n        /* \"EIP20.sol\":2951:3095  function allowance(address _owner, address _spender) public view returns (uint256 remaining) {\r... */\n    tag_15:\n      callvalue\n      dup1\n      iszero\n      tag_73\n      jumpi\n      0x00\n      dup1\n      revert\n    tag_73:\n      pop\n      tag_74\n      0x04\n      dup1\n      calldatasize\n      sub\n      0x40\n      dup2\n      lt\n      iszero\n      tag_75\n      jumpi\n      0x00\n      dup1\n      revert\n    tag_75:\n      dup2\n      add\n      swap1\n      dup1\n      dup1\n      calldataload\n      0xffffffffffffffffffffffffffffffffffffffff\n      and\n      swap1\n      0x20\n      add\n      swap1\n      swap3\n      swap2\n      swap1\n      dup1\n      calldataload\n      0xffffffffffffffffffffffffffffffffffffffff\n      and\n      swap1\n      0x20\n      add\n      swap1\n      swap3\n      swap2\n      swap1\n      pop\n      pop\n      pop\n      tag_76\n      jump\t// in\n    tag_74:\n      mload(0x40)\n      dup1\n      dup3\n      dup2\n      mstore\n      0x20\n      add\n      swap2\n      pop\n      pop\n      mload(0x40)\n      dup1\n      swap2\n      sub\n      swap1\n      return\n        /* \"EIP20.sol\":3107:3270  function mintCoin(uint newCoins) public {\r... */\n    tag_16:\n      callvalue\n      dup1\n      iszero\n      tag_77\n      jumpi\n      0x00\n      dup1\n      revert\n    tag_77:\n      pop\n      tag_78\n      0x04\n      dup1\n      calldatasize\n      sub\n      0x20\n      dup2\n      lt\n      iszero\n      tag_79\n      jumpi\n      0x00\n      dup1\n      revert\n    tag_79:\n      dup2\n      add\n      swap1\n      dup1\n      dup1\n      calldataload\n      swap1\n      0x20\n      add\n      swap1\n      swap3\n      swap2\n      swap1\n      pop\n      pop\n      pop\n      tag_80\n      jump\t// in\n    tag_78:\n      stop\n        /* \"EIP20.sol\":763:781  string public name */\n    tag_24:\n      0x03\n      dup1\n      sload\n      0x01\n      dup2\n      0x01\n      and\n      iszero\n      0x0100\n      mul\n      sub\n      and\n      0x02\n      swap1\n      div\n      dup1\n      0x1f\n      add\n      0x20\n      dup1\n      swap2\n      div\n      mul\n      0x20\n      add\n      mload(0x40)\n      swap1\n      dup2\n      add\n      0x40\n      mstore\n      dup1\n      swap3\n      swap2\n      swap1\n      dup2\n      dup2\n      mstore\n      0x20\n      add\n      dup3\n      dup1\n      sload\n      0x01\n      dup2\n      0x01\n      and\n      iszero\n      0x0100\n      mul\n      sub\n      and\n      0x02\n      swap1\n      div\n      dup1\n      iszero\n      tag_81\n      jumpi\n      dup1\n      0x1f\n      lt\n      tag_82\n      jumpi\n      0x0100\n      dup1\n      dup4\n      sload\n      div\n      mul\n      dup4\n      mstore\n      swap2\n      0x20\n      add\n      swap2\n      jump(tag_81)\n    tag_82:\n      dup3\n      add\n      swap2\n      swap1\n      0x00\n      mstore\n      keccak256(0x00, 0x20)\n      swap1\n    tag_83:\n      dup2\n      sload\n      dup2\n      mstore\n      swap1\n      0x01\n      add\n      swap1\n      0x20\n      add\n      dup1\n      dup4\n      gt\n      tag_83\n      jumpi\n      dup3\n      swap1\n      sub\n      0x1f\n      and\n      dup3\n      add\n      swap2\n    tag_81:\n      pop\n      pop\n      pop\n      pop\n      pop\n      dup2\n      jump\t// out\n        /* \"EIP20.sol\":2683:2943  function approve(address _spender, uint256 _value) public returns (bool success) {\r... */\n    tag_32:\n        /* \"EIP20.sol\":2750:2762  bool success */\n      0x00\n        /* \"EIP20.sol\":2807:2813  _value */\n      dup2\n        /* \"EIP20.sol\":2775:2782  allowed */\n      0x02\n        /* \"EIP20.sol\":2775:2794  allowed[msg.sender] */\n      0x00\n        /* \"EIP20.sol\":2783:2793  msg.sender */\n      caller\n        /* \"EIP20.sol\":2775:2794  allowed[msg.sender] */\n      0xffffffffffffffffffffffffffffffffffffffff\n      and\n      0xffffffffffffffffffffffffffffffffffffffff\n      and\n      dup2\n      mstore\n      0x20\n      add\n      swap1\n      dup2\n      mstore\n      0x20\n      add\n      0x00\n      keccak256\n        /* \"EIP20.sol\":2775:2804  allowed[msg.sender][_spender] */\n      0x00\n        /* \"EIP20.sol\":2795:2803  _spender */\n      dup6\n        /* \"EIP20.sol\":2775:2804  allowed[msg.sender][_spender] */\n      0xffffffffffffffffffffffffffffffffffffffff\n      and\n      0xffffffffffffffffffffffffffffffffffffffff\n      and\n      dup2\n      mstore\n      0x20\n      add\n      swap1\n      dup2\n      mstore\n      0x20\n      add\n      0x00\n      keccak256\n        /* \"EIP20.sol\":2775:2813  allowed[msg.sender][_spender] = _value */\n      dup2\n      swap1\n      sstore\n      pop\n        /* \"EIP20.sol\":2850:2858  _spender */\n      dup3\n        /* \"EIP20.sol\":2829:2867  Approval(msg.sender, _spender, _value) */\n      0xffffffffffffffffffffffffffffffffffffffff\n      and\n        /* \"EIP20.sol\":2838:2848  msg.sender */\n      caller\n        /* \"EIP20.sol\":2829:2867  Approval(msg.sender, _spender, _value) */\n      0xffffffffffffffffffffffffffffffffffffffff\n      and\n      0x8c5be1e5ebec7d5bd14f71427d1e84f3dd0314c0f7b2291e5b200ac8c7c3b925\n        /* \"EIP20.sol\":2860:2866  _value */\n      dup5\n        /* \"EIP20.sol\":2829:2867  Approval(msg.sender, _spender, _value) */\n      mload(0x40)\n      dup1\n      dup3\n      dup2\n      mstore\n      0x20\n      add\n      swap2\n      pop\n      pop\n      mload(0x40)\n      dup1\n      swap2\n      sub\n      swap1\n      log3\n        /* \"EIP20.sol\":2931:2935  true */\n      0x01\n        /* \"EIP20.sol\":2924:2935  return true */\n      swap1\n      pop\n        /* \"EIP20.sol\":2683:2943  function approve(address _spender, uint256 _value) public returns (bool success) {\r... */\n      swap3\n      swap2\n      pop\n      pop\n      jump\t// out\n        /* \"EIP20.sol\":91:117  uint256 public totalSupply */\n    tag_35:\n      sload(0x00)\n      dup2\n      jump\t// out\n        /* \"EIP20.sol\":3321:3565  function convertCoinsToEther(uint _value) public {\r... */\n    tag_39:\n        /* \"EIP20.sol\":3413:3419  _value */\n      dup1\n        /* \"EIP20.sol\":3389:3397  balances */\n      0x01\n        /* \"EIP20.sol\":3389:3409  balances[msg.sender] */\n      0x00\n        /* \"EIP20.sol\":3398:3408  msg.sender */\n      caller\n        /* \"EIP20.sol\":3389:3409  balances[msg.sender] */\n      0xffffffffffffffffffffffffffffffffffffffff\n      and\n      0xffffffffffffffffffffffffffffffffffffffff\n      and\n      dup2\n      mstore\n      0x20\n      add\n      swap1\n      dup2\n      mstore\n      0x20\n      add\n      0x00\n      keccak256\n      sload\n        /* \"EIP20.sol\":3389:3419  balances[msg.sender] >= _value */\n      lt\n      iszero\n        /* \"EIP20.sol\":3381:3420  require(balances[msg.sender] >= _value) */\n      tag_86\n      jumpi\n      0x00\n      dup1\n      revert\n    tag_86:\n        /* \"EIP20.sol\":3455:3461  _value */\n      dup1\n        /* \"EIP20.sol\":3431:3439  balances */\n      0x01\n        /* \"EIP20.sol\":3431:3451  balances[msg.sender] */\n      0x00\n        /* \"EIP20.sol\":3440:3450  msg.sender */\n      caller\n        /* \"EIP20.sol\":3431:3451  balances[msg.sender] */\n      0xffffffffffffffffffffffffffffffffffffffff\n      and\n      0xffffffffffffffffffffffffffffffffffffffff\n      and\n      dup2\n      mstore\n      0x20\n      add\n      swap1\n      dup2\n      mstore\n      0x20\n      add\n      0x00\n      keccak256\n      0x00\n        /* \"EIP20.sol\":3431:3461  balances[msg.sender] -= _value */\n      dup3\n      dup3\n      sload\n      sub\n      swap3\n      pop\n      pop\n      dup2\n      swap1\n      sstore\n      pop\n        /* \"EIP20.sol\":3493:3499  _value */\n      dup1\n        /* \"EIP20.sol\":3472:3480  balances */\n      0x01\n        /* \"EIP20.sol\":3472:3489  balances[manager] */\n      0x00\n        /* \"EIP20.sol\":3481:3488  manager */\n      0x06\n      0x00\n      swap1\n      sload\n      swap1\n      0x0100\n      exp\n      swap1\n      div\n      0xffffffffffffffffffffffffffffffffffffffff\n      and\n        /* \"EIP20.sol\":3472:3489  balances[manager] */\n      0xffffffffffffffffffffffffffffffffffffffff\n      and\n      0xffffffffffffffffffffffffffffffffffffffff\n      and\n      dup2\n      mstore\n      0x20\n      add\n      swap1\n      dup2\n      mstore\n      0x20\n      add\n      0x00\n      keccak256\n      0x00\n        /* \"EIP20.sol\":3472:3499  balances[manager] += _value */\n      dup3\n      dup3\n      sload\n      add\n      swap3\n      pop\n      pop\n      dup2\n      swap1\n      sstore\n      pop\n        /* \"EIP20.sol\":3518:3528  msg.sender */\n      caller\n        /* \"EIP20.sol\":3510:3538  payable(msg.sender).transfer */\n      0xffffffffffffffffffffffffffffffffffffffff\n      and\n        /* \"EIP20.sol\":3510:3557  payable(msg.sender).transfer(_value*0.01 ether) */\n      0x08fc\n        /* \"EIP20.sol\":3546:3556  0.01 ether */\n      0x2386f26fc10000\n        /* \"EIP20.sol\":3539:3545  _value */\n      dup4\n        /* \"EIP20.sol\":3539:3556  _value*0.01 ether */\n      mul\n        /* \"EIP20.sol\":3510:3557  payable(msg.sender).transfer(_value*0.01 ether) */\n      swap1\n      dup2\n      iszero\n      mul\n      swap1\n      mload(0x40)\n      0x00\n      mload(0x40)\n      dup1\n      dup4\n      sub\n      dup2\n      dup6\n      dup9\n      dup9\n      call\n      swap4\n      pop\n      pop\n      pop\n      pop\n      iszero\n      dup1\n      iszero\n      tag_88\n      jumpi\n      returndatasize\n      0x00\n      dup1\n      returndatacopy\n      revert(0x00, returndatasize)\n    tag_88:\n      pop\n        /* \"EIP20.sol\":3321:3565  function convertCoinsToEther(uint _value) public {\r... */\n      pop\n      jump\t// out\n        /* \"EIP20.sol\":2039:2552  function transferFrom(address _from, address _to, uint256 _value) public returns (bool success) {\r... */\n    tag_43:\n        /* \"EIP20.sol\":2121:2133  bool success */\n      0x00\n        /* \"EIP20.sol\":2146:2163  uint256 allowance */\n      dup1\n        /* \"EIP20.sol\":2166:2173  allowed */\n      0x02\n        /* \"EIP20.sol\":2166:2180  allowed[_from] */\n      0x00\n        /* \"EIP20.sol\":2174:2179  _from */\n      dup7\n        /* \"EIP20.sol\":2166:2180  allowed[_from] */\n      0xffffffffffffffffffffffffffffffffffffffff\n      and\n      0xffffffffffffffffffffffffffffffffffffffff\n      and\n      dup2\n      mstore\n      0x20\n      add\n      swap1\n      dup2\n      mstore\n      0x20\n      add\n      0x00\n      keccak256\n        /* \"EIP20.sol\":2166:2192  allowed[_from][msg.sender] */\n      0x00\n        /* \"EIP20.sol\":2181:2191  msg.sender */\n      caller\n        /* \"EIP20.sol\":2166:2192  allowed[_from][msg.sender] */\n      0xffffffffffffffffffffffffffffffffffffffff\n      and\n      0xffffffffffffffffffffffffffffffffffffffff\n      and\n      dup2\n      mstore\n      0x20\n      add\n      swap1\n      dup2\n      mstore\n      0x20\n      add\n      0x00\n      keccak256\n      sload\n        /* \"EIP20.sol\":2146:2192  uint256 allowance = allowed[_from][msg.sender] */\n      swap1\n      pop\n        /* \"EIP20.sol\":2230:2236  _value */\n      dup3\n        /* \"EIP20.sol\":2211:2219  balances */\n      0x01\n        /* \"EIP20.sol\":2211:2226  balances[_from] */\n      0x00\n        /* \"EIP20.sol\":2220:2225  _from */\n      dup8\n        /* \"EIP20.sol\":2211:2226  balances[_from] */\n      0xffffffffffffffffffffffffffffffffffffffff\n      and\n      0xffffffffffffffffffffffffffffffffffffffff\n      and\n      dup2\n      mstore\n      0x20\n      add\n      swap1\n      dup2\n      mstore\n      0x20\n      add\n      0x00\n      keccak256\n      sload\n        /* \"EIP20.sol\":2211:2236  balances[_from] >= _value */\n      lt\n      iszero\n        /* \"EIP20.sol\":2211:2259  balances[_from] >= _value && allowance >= _value */\n      dup1\n      iszero\n      tag_90\n      jumpi\n      pop\n        /* \"EIP20.sol\":2253:2259  _value */\n      dup3\n        /* \"EIP20.sol\":2240:2249  allowance */\n      dup2\n        /* \"EIP20.sol\":2240:2259  allowance >= _value */\n      lt\n      iszero\n        /* \"EIP20.sol\":2211:2259  balances[_from] >= _value && allowance >= _value */\n    tag_90:\n        /* \"EIP20.sol\":2203:2260  require(balances[_from] >= _value && allowance >= _value) */\n      tag_91\n      jumpi\n      0x00\n      dup1\n      revert\n    tag_91:\n        /* \"EIP20.sol\":2288:2294  _value */\n      dup3\n        /* \"EIP20.sol\":2271:2279  balances */\n      0x01\n        /* \"EIP20.sol\":2271:2284  balances[_to] */\n      0x00\n        /* \"EIP20.sol\":2280:2283  _to */\n      dup7\n        /* \"EIP20.sol\":2271:2284  balances[_to] */\n      0xffffffffffffffffffffffffffffffffffffffff\n      and\n      0xffffffffffffffffffffffffffffffffffffffff\n      and\n      dup2\n      mstore\n      0x20\n      add\n      swap1\n      dup2\n      mstore\n      0x20\n      add\n      0x00\n      keccak256\n      0x00\n        /* \"EIP20.sol\":2271:2294  balances[_to] += _value */\n      dup3\n      dup3\n      sload\n      add\n      swap3\n      pop\n      pop\n      dup2\n      swap1\n      sstore\n      pop\n        /* \"EIP20.sol\":2324:2330  _value */\n      dup3\n        /* \"EIP20.sol\":2305:2313  balances */\n      0x01\n        /* \"EIP20.sol\":2305:2320  balances[_from] */\n      0x00\n        /* \"EIP20.sol\":2314:2319  _from */\n      dup8\n        /* \"EIP20.sol\":2305:2320  balances[_from] */\n      0xffffffffffffffffffffffffffffffffffffffff\n      and\n      0xffffffffffffffffffffffffffffffffffffffff\n      and\n      dup2\n      mstore\n      0x20\n      add\n      swap1\n      dup2\n      mstore\n      0x20\n      add\n      0x00\n      keccak256\n      0x00\n        /* \"EIP20.sol\":2305:2330  balances[_from] -= _value */\n      dup3\n      dup3\n      sload\n      sub\n      swap3\n      pop\n      pop\n      dup2\n      swap1\n      sstore\n      pop\n        /* \"EIP20.sol\":163:173  2**256 - 1 */\n      0xffffffffffffffffffffffffffffffffffffffffffffffffffffffffffffffff\n        /* \"EIP20.sol\":2345:2354  allowance */\n      dup2\n        /* \"EIP20.sol\":2345:2368  allowance < MAX_UINT256 */\n      lt\n        /* \"EIP20.sol\":2341:2433  if (allowance < MAX_UINT256) {\r... */\n      iszero\n      tag_92\n      jumpi\n        /* \"EIP20.sol\":2415:2421  _value */\n      dup3\n        /* \"EIP20.sol\":2385:2392  allowed */\n      0x02\n        /* \"EIP20.sol\":2385:2399  allowed[_from] */\n      0x00\n        /* \"EIP20.sol\":2393:2398  _from */\n      dup8\n        /* \"EIP20.sol\":2385:2399  allowed[_from] */\n      0xffffffffffffffffffffffffffffffffffffffff\n      and\n      0xffffffffffffffffffffffffffffffffffffffff\n      and\n      dup2\n      mstore\n      0x20\n      add\n      swap1\n      dup2\n      mstore\n      0x20\n      add\n      0x00\n      keccak256\n        /* \"EIP20.sol\":2385:2411  allowed[_from][msg.sender] */\n      0x00\n        /* \"EIP20.sol\":2400:2410  msg.sender */\n      caller\n        /* \"EIP20.sol\":2385:2411  allowed[_from][msg.sender] */\n      0xffffffffffffffffffffffffffffffffffffffff\n      and\n      0xffffffffffffffffffffffffffffffffffffffff\n      and\n      dup2\n      mstore\n      0x20\n      add\n      swap1\n      dup2\n      mstore\n      0x20\n      add\n      0x00\n      keccak256\n      0x00\n        /* \"EIP20.sol\":2385:2421  allowed[_from][msg.sender] -= _value */\n      dup3\n      dup3\n      sload\n      sub\n      swap3\n      pop\n      pop\n      dup2\n      swap1\n      sstore\n      pop\n        /* \"EIP20.sol\":2341:2433  if (allowance < MAX_UINT256) {\r... */\n    tag_92:\n        /* \"EIP20.sol\":2464:2467  _to */\n      dup4\n        /* \"EIP20.sol\":2448:2476  Transfer(_from, _to, _value) */\n      0xffffffffffffffffffffffffffffffffffffffff\n      and\n        /* \"EIP20.sol\":2457:2462  _from */\n      dup6\n        /* \"EIP20.sol\":2448:2476  Transfer(_from, _to, _value) */\n      0xffffffffffffffffffffffffffffffffffffffff\n      and\n      0xddf252ad1be2c89b69c2b068fc378daa952ba7f163c4a11628f55a4df523b3ef\n        /* \"EIP20.sol\":2469:2475  _value */\n      dup6\n        /* \"EIP20.sol\":2448:2476  Transfer(_from, _to, _value) */\n      mload(0x40)\n      dup1\n      dup3\n      dup2\n      mstore\n      0x20\n      add\n      swap2\n      pop\n      pop\n      mload(0x40)\n      dup1\n      swap2\n      sub\n      swap1\n      log3\n        /* \"EIP20.sol\":2540:2544  true */\n      0x01\n        /* \"EIP20.sol\":2533:2544  return true */\n      swap2\n      pop\n      pop\n        /* \"EIP20.sol\":2039:2552  function transferFrom(address _from, address _to, uint256 _value) public returns (bool success) {\r... */\n      swap4\n      swap3\n      pop\n      pop\n      pop\n      jump\t// out\n        /* \"EIP20.sol\":180:224  mapping (address => uint256) public balances */\n    tag_47:\n      mstore(0x20, 0x01)\n      dup1\n      0x00\n      mstore\n      keccak256(0x00, 0x40)\n      0x00\n      swap2\n      pop\n      swap1\n      pop\n      sload\n      dup2\n      jump\t// out\n        /* \"EIP20.sol\":835:856  uint8 public decimals */\n    tag_50:\n      0x04\n      0x00\n      swap1\n      sload\n      swap1\n      0x0100\n      exp\n      swap1\n      div\n      0xff\n      and\n      dup2\n      jump\t// out\n        /* \"EIP20.sol\":974:996  address public manager */\n    tag_53:\n      0x06\n      0x00\n      swap1\n      sload\n      swap1\n      0x0100\n      exp\n      swap1\n      div\n      0xffffffffffffffffffffffffffffffffffffffff\n      and\n      dup2\n      jump\t// out\n        /* \"EIP20.sol\":231:295  mapping (address => mapping (address => uint256)) public allowed */\n    tag_57:\n      mstore(0x20, 0x02)\n      dup2\n      0x00\n      mstore\n      mstore(0x20, keccak256(0x00, 0x40))\n      dup1\n      0x00\n      mstore\n      keccak256(0x00, 0x40)\n      0x00\n      swap2\n      pop\n      swap2\n      pop\n      pop\n      sload\n      dup2\n      jump\t// out\n        /* \"EIP20.sol\":2560:2675  function balanceOf(address _owner) public view returns (uint256 balance) {\r... */\n    tag_61:\n        /* \"EIP20.sol\":2616:2631  uint256 balance */\n      0x00\n        /* \"EIP20.sol\":2651:2659  balances */\n      0x01\n        /* \"EIP20.sol\":2651:2667  balances[_owner] */\n      0x00\n        /* \"EIP20.sol\":2660:2666  _owner */\n      dup4\n        /* \"EIP20.sol\":2651:2667  balances[_owner] */\n      0xffffffffffffffffffffffffffffffffffffffff\n      and\n      0xffffffffffffffffffffffffffffffffffffffff\n      and\n      dup2\n      mstore\n      0x20\n      add\n      swap1\n      dup2\n      mstore\n      0x20\n      add\n      0x00\n      keccak256\n      sload\n        /* \"EIP20.sol\":2644:2667  return balances[_owner] */\n      swap1\n      pop\n        /* \"EIP20.sol\":2560:2675  function balanceOf(address _owner) public view returns (uint256 balance) {\r... */\n      swap2\n      swap1\n      pop\n      jump\t// out\n        /* \"EIP20.sol\":907:927  string public symbol */\n    tag_64:\n      0x05\n      dup1\n      sload\n      0x01\n      dup2\n      0x01\n      and\n      iszero\n      0x0100\n      mul\n      sub\n      and\n      0x02\n      swap1\n      div\n      dup1\n      0x1f\n      add\n      0x20\n      dup1\n      swap2\n      div\n      mul\n      0x20\n      add\n      mload(0x40)\n      swap1\n      dup2\n      add\n      0x40\n      mstore\n      dup1\n      swap3\n      swap2\n      swap1\n      dup2\n      dup2\n      mstore\n      0x20\n      add\n      dup3\n      dup1\n      sload\n      0x01\n      dup2\n      0x01\n      and\n      iszero\n      0x0100\n      mul\n      sub\n      and\n      0x02\n      swap1\n      div\n      dup1\n      iszero\n      tag_94\n      jumpi\n      dup1\n      0x1f\n      lt\n      tag_95\n      jumpi\n      0x0100\n      dup1\n      dup4\n      sload\n      div\n      mul\n      dup4\n      mstore\n      swap2\n      0x20\n      add\n      swap2\n      jump(tag_94)\n    tag_95:\n      dup3\n      add\n      swap2\n      swap1\n      0x00\n      mstore\n      keccak256(0x00, 0x20)\n      swap1\n    tag_96:\n      dup2\n      sload\n      dup2\n      mstore\n      swap1\n      0x01\n      add\n      swap1\n      0x20\n      add\n      dup1\n      dup4\n      gt\n      tag_96\n      jumpi\n      dup3\n      swap1\n      sub\n      0x1f\n      and\n      dup3\n      add\n      swap2\n    tag_94:\n      pop\n      pop\n      pop\n      pop\n      pop\n      dup2\n      jump\t// out\n        /* \"EIP20.sol\":1704:2031  function transfer(address _to, uint256 _value) public returns (bool success) {\r... */\n    tag_72:\n        /* \"EIP20.sol\":1767:1779  bool success */\n      0x00\n        /* \"EIP20.sol\":1824:1830  _value */\n      dup2\n        /* \"EIP20.sol\":1800:1808  balances */\n      0x01\n        /* \"EIP20.sol\":1800:1820  balances[msg.sender] */\n      0x00\n        /* \"EIP20.sol\":1809:1819  msg.sender */\n      caller\n        /* \"EIP20.sol\":1800:1820  balances[msg.sender] */\n      0xffffffffffffffffffffffffffffffffffffffff\n      and\n      0xffffffffffffffffffffffffffffffffffffffff\n      and\n      dup2\n      mstore\n      0x20\n      add\n      swap1\n      dup2\n      mstore\n      0x20\n      add\n      0x00\n      keccak256\n      sload\n        /* \"EIP20.sol\":1800:1830  balances[msg.sender] >= _value */\n      lt\n      iszero\n        /* \"EIP20.sol\":1792:1831  require(balances[msg.sender] >= _value) */\n      tag_98\n      jumpi\n      0x00\n      dup1\n      revert\n    tag_98:\n        /* \"EIP20.sol\":1866:1872  _value */\n      dup2\n        /* \"EIP20.sol\":1842:1850  balances */\n      0x01\n        /* \"EIP20.sol\":1842:1862  balances[msg.sender] */\n      0x00\n        /* \"EIP20.sol\":1851:1861  msg.sender */\n      caller\n        /* \"EIP20.sol\":1842:1862  balances[msg.sender] */\n      0xffffffffffffffffffffffffffffffffffffffff\n      and\n      0xffffffffffffffffffffffffffffffffffffffff\n      and\n      dup2\n      mstore\n      0x20\n      add\n      swap1\n      dup2\n      mstore\n      0x20\n      add\n      0x00\n      keccak256\n      0x00\n        /* \"EIP20.sol\":1842:1872  balances[msg.sender] -= _value */\n      dup3\n      dup3\n      sload\n      sub\n      swap3\n      pop\n      pop\n      dup2\n      swap1\n      sstore\n      pop\n        /* \"EIP20.sol\":1900:1906  _value */\n      dup2\n        /* \"EIP20.sol\":1883:1891  balances */\n      0x01\n        /* \"EIP20.sol\":1883:1896  balances[_to] */\n      0x00\n        /* \"EIP20.sol\":1892:1895  _to */\n      dup6\n        /* \"EIP20.sol\":1883:1896  balances[_to] */\n      0xffffffffffffffffffffffffffffffffffffffff\n      and\n      0xffffffffffffffffffffffffffffffffffffffff\n      and\n      dup2\n      mstore\n      0x20\n      add\n      swap1\n      dup2\n      mstore\n      0x20\n      add\n      0x00\n      keccak256\n      0x00\n        /* \"EIP20.sol\":1883:1906  balances[_to] += _value */\n      dup3\n      dup3\n      sload\n      add\n      swap3\n      pop\n      pop\n      dup2\n      swap1\n      sstore\n      pop\n        /* \"EIP20.sol\":1943:1946  _to */\n      dup3\n        /* \"EIP20.sol\":1922:1955  Transfer(msg.sender, _to, _value) */\n      0xffffffffffffffffffffffffffffffffffffffff\n      and\n        /* \"EIP20.sol\":1931:1941  msg.sender */\n      caller\n        /* \"EIP20.sol\":1922:1955  Transfer(msg.sender, _to, _value) */\n      0xffffffffffffffffffffffffffffffffffffffff\n      and\n      0xddf252ad1be2c89b69c2b068fc378daa952ba7f163c4a11628f55a4df523b3ef\n        /* \"EIP20.sol\":1948:1954  _value */\n      dup5\n        /* \"EIP20.sol\":1922:1955  Transfer(msg.sender, _to, _value) */\n      mload(0x40)\n      dup1\n      dup3\n      dup2\n      mstore\n      0x20\n      add\n      swap2\n      pop\n      pop\n      mload(0x40)\n      dup1\n      swap2\n      sub\n      swap1\n      log3\n        /* \"EIP20.sol\":2019:2023  true */\n      0x01\n        /* \"EIP20.sol\":2012:2023  return true */\n      swap1\n      pop\n        /* \"EIP20.sol\":1704:2031  function transfer(address _to, uint256 _value) public returns (bool success) {\r... */\n      swap3\n      swap2\n      pop\n      pop\n      jump\t// out\n        /* \"EIP20.sol\":2951:3095  function allowance(address _owner, address _spender) public view returns (uint256 remaining) {\r... */\n    tag_76:\n        /* \"EIP20.sol\":3025:3042  uint256 remaining */\n      0x00\n        /* \"EIP20.sol\":3062:3069  allowed */\n      0x02\n        /* \"EIP20.sol\":3062:3077  allowed[_owner] */\n      0x00\n        /* \"EIP20.sol\":3070:3076  _owner */\n      dup5\n        /* \"EIP20.sol\":3062:3077  allowed[_owner] */\n      0xffffffffffffffffffffffffffffffffffffffff\n      and\n      0xffffffffffffffffffffffffffffffffffffffff\n      and\n      dup2\n      mstore\n      0x20\n      add\n      swap1\n      dup2\n      mstore\n      0x20\n      add\n      0x00\n      keccak256\n        /* \"EIP20.sol\":3062:3087  allowed[_owner][_spender] */\n      0x00\n        /* \"EIP20.sol\":3078:3086  _spender */\n      dup4\n        /* \"EIP20.sol\":3062:3087  allowed[_owner][_spender] */\n      0xffffffffffffffffffffffffffffffffffffffff\n      and\n      0xffffffffffffffffffffffffffffffffffffffff\n      and\n      dup2\n      mstore\n      0x20\n      add\n      swap1\n      dup2\n      mstore\n      0x20\n      add\n      0x00\n      keccak256\n      sload\n        /* \"EIP20.sol\":3055:3087  return allowed[_owner][_spender] */\n      swap1\n      pop\n        /* \"EIP20.sol\":2951:3095  function allowance(address _owner, address _spender) public view returns (uint256 remaining) {\r... */\n      swap3\n      swap2\n      pop\n      pop\n      jump\t// out\n        /* \"EIP20.sol\":3107:3270  function mintCoin(uint newCoins) public {\r... */\n    tag_80:\n        /* \"EIP20.sol\":3180:3187  manager */\n      0x06\n      0x00\n      swap1\n      sload\n      swap1\n      0x0100\n      exp\n      swap1\n      div\n      0xffffffffffffffffffffffffffffffffffffffff\n      and\n        /* \"EIP20.sol\":3166:3187  msg.sender == manager */\n      0xffffffffffffffffffffffffffffffffffffffff\n      and\n        /* \"EIP20.sol\":3166:3176  msg.sender */\n      caller\n        /* \"EIP20.sol\":3166:3187  msg.sender == manager */\n      0xffffffffffffffffffffffffffffffffffffffff\n      and\n      eq\n        /* \"EIP20.sol\":3158:3188  require(msg.sender == manager) */\n      tag_101\n      jumpi\n      0x00\n      dup1\n      revert\n    tag_101:\n        /* \"EIP20.sol\":3214:3222  newCoins */\n      dup1\n        /* \"EIP20.sol\":3199:3210  totalSupply */\n      0x00\n      dup1\n        /* \"EIP20.sol\":3199:3222  totalSupply += newCoins */\n      dup3\n      dup3\n      sload\n      add\n      swap3\n      pop\n      pop\n      dup2\n      swap1\n      sstore\n      pop\n        /* \"EIP20.sol\":3254:3262  newCoins */\n      dup1\n        /* \"EIP20.sol\":3233:3241  balances */\n      0x01\n        /* \"EIP20.sol\":3233:3250  balances[manager] */\n      0x00\n        /* \"EIP20.sol\":3242:3249  manager */\n      0x06\n      0x00\n      swap1\n      sload\n      swap1\n      0x0100\n      exp\n      swap1\n      div\n      0xffffffffffffffffffffffffffffffffffffffff\n      and\n        /* \"EIP20.sol\":3233:3250  balances[manager] */\n      0xffffffffffffffffffffffffffffffffffffffff\n      and\n      0xffffffffffffffffffffffffffffffffffffffff\n      and\n      dup2\n      mstore\n      0x20\n      add\n      swap1\n      dup2\n      mstore\n      0x20\n      add\n      0x00\n      keccak256\n      0x00\n        /* \"EIP20.sol\":3233:3262  balances[manager] += newCoins */\n      dup3\n      dup3\n      sload\n      add\n      swap3\n      pop\n      pop\n      dup2\n      swap1\n      sstore\n      pop\n        /* \"EIP20.sol\":3107:3270  function mintCoin(uint newCoins) public {\r... */\n      pop\n      jump\t// out\n\n    auxdata: 0xa26469706673582212204338913ed8eb97ff38d09a3c6252a68c45f18cc7a6d08a1558e57d6b03810b6b64736f6c63430007050033\n}\n","bytecode":{"linkReferences":{},"object":"60806040523480156200001157600080fd5b50604051620013ab380380620013ab833981810160405260808110156200003757600080fd5b8101908080519060200190929190805160405193929190846401000000008211156200006257600080fd5b838201915060208201858111156200007957600080fd5b82518660018202830111640100000000821117156200009757600080fd5b8083526020830192505050908051906020019080838360005b83811015620000cd578082015181840152602081019050620000b0565b50505050905090810190601f168015620000fb5780820380516001836020036101000a031916815260200191505b5060405260200180519060200190929190805160405193929190846401000000008211156200012957600080fd5b838201915060208201858111156200014057600080fd5b82518660018202830111640100000000821117156200015e57600080fd5b8083526020830192505050908051906020019080838360005b838110156200019457808201518184015260208101905062000177565b50505050905090810190601f168015620001c25780820380516001836020036101000a031916815260200191505b5060405250505033600660006101000a81548173ffffffffffffffffffffffffffffffffffffffff021916908373ffffffffffffffffffffffffffffffffffffffff16021790555083600160003373ffffffffffffffffffffffffffffffffffffffff1673ffffffffffffffffffffffffffffffffffffffff168152602001908152602001600020819055508360008190555082600390805190602001906200026d929190620002ac565b5081600460006101000a81548160ff021916908360ff1602179055508060059080519060200190620002a1929190620002ac565b505050505062000362565b828054600181600116156101000203166002900490600052602060002090601f016020900481019282620002e4576000855562000330565b82601f10620002ff57805160ff191683800117855562000330565b8280016001018555821562000330579182015b828111156200032f57825182559160200191906001019062000312565b5b5090506200033f919062000343565b5090565b5b808211156200035e57600081600090555060010162000344565b5090565b61103980620003726000396000f3fe6080604052600436106100e15760003560e01c8063481c6a751161007f57806395d89b411161005957806395d89b41146104a3578063a9059cbb14610533578063dd62ed3e146105a4578063f3f7d04f14610629576100e8565b8063481c6a75146103785780635c658165146103b957806370a082311461043e576100e8565b80631b166792116100bb5780631b1667921461021957806323b872dd1461025457806327e235e3146102e5578063313ce5671461034a576100e8565b806306fdde03146100ed578063095ea7b31461017d57806318160ddd146101ee576100e8565b366100e857005b600080fd5b3480156100f957600080fd5b50610102610664565b6040518080602001828103825283818151815260200191508051906020019080838360005b83811015610142578082015181840152602081019050610127565b50505050905090810190601f16801561016f5780820380516001836020036101000a031916815260200191505b509250505060405180910390f35b34801561018957600080fd5b506101d6600480360360408110156101a057600080fd5b81019080803573ffffffffffffffffffffffffffffffffffffffff16906020019092919080359060200190929190505050610702565b60405180821515815260200191505060405180910390f35b3480156101fa57600080fd5b506102036107f4565b6040518082815260200191505060405180910390f35b34801561022557600080fd5b506102526004803603602081101561023c57600080fd5b81019080803590602001909291905050506107fa565b005b34801561026057600080fd5b506102cd6004803603606081101561027757600080fd5b81019080803573ffffffffffffffffffffffffffffffffffffffff169060200190929190803573ffffffffffffffffffffffffffffffffffffffff16906020019092919080359060200190929190505050610955565b60405180821515815260200191505060405180910390f35b3480156102f157600080fd5b506103346004803603602081101561030857600080fd5b81019080803573ffffffffffffffffffffffffffffffffffffffff169060200190929190505050610bed565b6040518082815260200191505060405180910390f35b34801561035657600080fd5b5061035f610c05565b604051808260ff16815260200191505060405180910390f35b34801561038457600080fd5b5061038d610c18565b604051808273ffffffffffffffffffffffffffffffffffffffff16815260200191505060405180910390f35b3480156103c557600080fd5b50610428600480360360408110156103dc57600080fd5b81019080803573ffffffffffffffffffffffffffffffffffffffff169060200190929190803573ffffffffffffffffffffffffffffffffffffffff169060200190929190505050610c3e565b6040518082815260200191505060405180910390f35b34801561044a57600080fd5b5061048d6004803603602081101561046157600080fd5b81019080803573ffffffffffffffffffffffffffffffffffffffff169060200190929190505050610c63565b6040518082815260200191505060405180910390f35b3480156104af57600080fd5b506104b8610cac565b6040518080602001828103825283818151815260200191508051906020019080838360005b838110156104f85780820151818401526020810190506104dd565b50505050905090810190601f1680156105255780820380516001836020036101000a031916815260200191505b509250505060405180910390f35b34801561053f57600080fd5b5061058c6004803603604081101561055657600080fd5b81019080803573ffffffffffffffffffffffffffffffffffffffff16906020019092919080359060200190929190505050610d4a565b60405180821515815260200191505060405180910390f35b3480156105b057600080fd5b50610613600480360360408110156105c757600080fd5b81019080803573ffffffffffffffffffffffffffffffffffffffff169060200190929190803573ffffffffffffffffffffffffffffffffffffffff169060200190929190505050610ea1565b6040518082815260200191505060405180910390f35b34801561063557600080fd5b506106626004803603602081101561064c57600080fd5b8101908080359060200190929190505050610f28565b005b60038054600181600116156101000203166002900480601f0160208091040260200160405190810160405280929190818152602001828054600181600116156101000203166002900480156106fa5780601f106106cf576101008083540402835291602001916106fa565b820191906000526020600020905b8154815290600101906020018083116106dd57829003601f168201915b505050505081565b600081600260003373ffffffffffffffffffffffffffffffffffffffff1673ffffffffffffffffffffffffffffffffffffffff16815260200190815260200160002060008573ffffffffffffffffffffffffffffffffffffffff1673ffffffffffffffffffffffffffffffffffffffff168152602001908152602001600020819055508273ffffffffffffffffffffffffffffffffffffffff163373ffffffffffffffffffffffffffffffffffffffff167f8c5be1e5ebec7d5bd14f71427d1e84f3dd0314c0f7b2291e5b200ac8c7c3b925846040518082815260200191505060405180910390a36001905092915050565b60005481565b80600160003373ffffffffffffffffffffffffffffffffffffffff1673ffffffffffffffffffffffffffffffffffffffff16815260200190815260200160002054101561084657600080fd5b80600160003373ffffffffffffffffffffffffffffffffffffffff1673ffffffffffffffffffffffffffffffffffffffff168152602001908152602001600020600082825403925050819055508060016000600660009054906101000a900473ffffffffffffffffffffffffffffffffffffffff1673ffffffffffffffffffffffffffffffffffffffff1673ffffffffffffffffffffffffffffffffffffffff168152602001908152602001600020600082825401925050819055503373ffffffffffffffffffffffffffffffffffffffff166108fc662386f26fc1000083029081150290604051600060405180830381858888f19350505050158015610951573d6000803e3d6000fd5b5050565b600080600260008673ffffffffffffffffffffffffffffffffffffffff1673ffffffffffffffffffffffffffffffffffffffff16815260200190815260200160002060003373ffffffffffffffffffffffffffffffffffffffff1673ffffffffffffffffffffffffffffffffffffffff16815260200190815260200160002054905082600160008773ffffffffffffffffffffffffffffffffffffffff1673ffffffffffffffffffffffffffffffffffffffff1681526020019081526020016000205410158015610a265750828110155b610a2f57600080fd5b82600160008673ffffffffffffffffffffffffffffffffffffffff1673ffffffffffffffffffffffffffffffffffffffff1681526020019081526020016000206000828254019250508190555082600160008773ffffffffffffffffffffffffffffffffffffffff1673ffffffffffffffffffffffffffffffffffffffff168152602001908152602001600020600082825403925050819055507fffffffffffffffffffffffffffffffffffffffffffffffffffffffffffffffff811015610b7c5782600260008773ffffffffffffffffffffffffffffffffffffffff1673ffffffffffffffffffffffffffffffffffffffff16815260200190815260200160002060003373ffffffffffffffffffffffffffffffffffffffff1673ffffffffffffffffffffffffffffffffffffffff168152602001908152602001600020600082825403925050819055505b8373ffffffffffffffffffffffffffffffffffffffff168573ffffffffffffffffffffffffffffffffffffffff167fddf252ad1be2c89b69c2b068fc378daa952ba7f163c4a11628f55a4df523b3ef856040518082815260200191505060405180910390a360019150509392505050565b60016020528060005260406000206000915090505481565b600460009054906101000a900460ff1681565b600660009054906101000a900473ffffffffffffffffffffffffffffffffffffffff1681565b6002602052816000526040600020602052806000526040600020600091509150505481565b6000600160008373ffffffffffffffffffffffffffffffffffffffff1673ffffffffffffffffffffffffffffffffffffffff168152602001908152602001600020549050919050565b60058054600181600116156101000203166002900480601f016020809104026020016040519081016040528092919081815260200182805460018160011615610100020316600290048015610d425780601f10610d1757610100808354040283529160200191610d42565b820191906000526020600020905b815481529060010190602001808311610d2557829003601f168201915b505050505081565b600081600160003373ffffffffffffffffffffffffffffffffffffffff1673ffffffffffffffffffffffffffffffffffffffff168152602001908152602001600020541015610d9857600080fd5b81600160003373ffffffffffffffffffffffffffffffffffffffff1673ffffffffffffffffffffffffffffffffffffffff1681526020019081526020016000206000828254039250508190555081600160008573ffffffffffffffffffffffffffffffffffffffff1673ffffffffffffffffffffffffffffffffffffffff168152602001908152602001600020600082825401925050819055508273ffffffffffffffffffffffffffffffffffffffff163373ffffffffffffffffffffffffffffffffffffffff167fddf252ad1be2c89b69c2b068fc378daa952ba7f163c4a11628f55a4df523b3ef846040518082815260200191505060405180910390a36001905092915050565b6000600260008473ffffffffffffffffffffffffffffffffffffffff1673ffffffffffffffffffffffffffffffffffffffff16815260200190815260200160002060008373ffffffffffffffffffffffffffffffffffffffff1673ffffffffffffffffffffffffffffffffffffffff16815260200190815260200160002054905092915050565b600660009054906101000a900473ffffffffffffffffffffffffffffffffffffffff1673ffffffffffffffffffffffffffffffffffffffff163373ffffffffffffffffffffffffffffffffffffffff1614610f8257600080fd5b8060008082825401925050819055508060016000600660009054906101000a900473ffffffffffffffffffffffffffffffffffffffff1673ffffffffffffffffffffffffffffffffffffffff1673ffffffffffffffffffffffffffffffffffffffff168152602001908152602001600020600082825401925050819055505056fea26469706673582212204338913ed8eb97ff38d09a3c6252a68c45f18cc7a6d08a1558e57d6b03810b6b64736f6c63430007050033","opcodes":"PUSH1 0x80 PUSH1 0x40 MSTORE CALLVALUE DUP1 ISZERO PUSH3 0x11 JUMPI PUSH1 0x0 DUP1 REVERT JUMPDEST POP PUSH1 0x40 MLOAD PUSH3 0x13AB CODESIZE SUB DUP1 PUSH3 0x13AB DUP4 CODECOPY DUP2 DUP2 ADD PUSH1 0x40 MSTORE PUSH1 0x80 DUP2 LT ISZERO PUSH3 0x37 JUMPI PUSH1 0x0 DUP1 REVERT JUMPDEST DUP2 ADD SWAP1 DUP1 DUP1 MLOAD SWAP1 PUSH1 0x20 ADD SWAP1 SWAP3 SWAP2 SWAP1 DUP1 MLOAD PUSH1 0x40 MLOAD SWAP4 SWAP3 SWAP2 SWAP1 DUP5 PUSH5 0x100000000 DUP3 GT ISZERO PUSH3 0x62 JUMPI PUSH1 0x0 DUP1 REVERT JUMPDEST DUP4 DUP3 ADD SWAP2 POP PUSH1 0x20 DUP3 ADD DUP6 DUP2 GT ISZERO PUSH3 0x79 JUMPI PUSH1 0x0 DUP1 REVERT JUMPDEST DUP3 MLOAD DUP7 PUSH1 0x1 DUP3 MUL DUP4 ADD GT PUSH5 0x100000000 DUP3 GT OR ISZERO PUSH3 0x97 JUMPI PUSH1 0x0 DUP1 REVERT JUMPDEST DUP1 DUP4 MSTORE PUSH1 0x20 DUP4 ADD SWAP3 POP POP POP SWAP1 DUP1 MLOAD SWAP1 PUSH1 0x20 ADD SWAP1 DUP1 DUP4 DUP4 PUSH1 0x0 JUMPDEST DUP4 DUP2 LT ISZERO PUSH3 0xCD JUMPI DUP1 DUP3 ADD MLOAD DUP2 DUP5 ADD MSTORE PUSH1 0x20 DUP2 ADD SWAP1 POP PUSH3 0xB0 JUMP JUMPDEST POP POP POP POP SWAP1 POP SWAP1 DUP2 ADD SWAP1 PUSH1 0x1F AND DUP1 ISZERO PUSH3 0xFB JUMPI DUP1 DUP3 SUB DUP1 MLOAD PUSH1 0x1 DUP4 PUSH1 0x20 SUB PUSH2 0x100 EXP SUB NOT AND DUP2 MSTORE PUSH1 0x20 ADD SWAP2 POP JUMPDEST POP PUSH1 0x40 MSTORE PUSH1 0x20 ADD DUP1 MLOAD SWAP1 PUSH1 0x20 ADD SWAP1 SWAP3 SWAP2 SWAP1 DUP1 MLOAD PUSH1 0x40 MLOAD SWAP4 SWAP3 SWAP2 SWAP1 DUP5 PUSH5 0x100000000 DUP3 GT ISZERO PUSH3 0x129 JUMPI PUSH1 0x0 DUP1 REVERT JUMPDEST DUP4 DUP3 ADD SWAP2 POP PUSH1 0x20 DUP3 ADD DUP6 DUP2 GT ISZERO PUSH3 0x140 JUMPI PUSH1 0x0 DUP1 REVERT JUMPDEST DUP3 MLOAD DUP7 PUSH1 0x1 DUP3 MUL DUP4 ADD GT PUSH5 0x100000000 DUP3 GT OR ISZERO PUSH3 0x15E JUMPI PUSH1 0x0 DUP1 REVERT JUMPDEST DUP1 DUP4 MSTORE PUSH1 0x20 DUP4 ADD SWAP3 POP POP POP SWAP1 DUP1 MLOAD SWAP1 PUSH1 0x20 ADD SWAP1 DUP1 DUP4 DUP4 PUSH1 0x0 JUMPDEST DUP4 DUP2 LT ISZERO PUSH3 0x194 JUMPI DUP1 DUP3 ADD MLOAD DUP2 DUP5 ADD MSTORE PUSH1 0x20 DUP2 ADD SWAP1 POP PUSH3 0x177 JUMP JUMPDEST POP POP POP POP SWAP1 POP SWAP1 DUP2 ADD SWAP1 PUSH1 0x1F AND DUP1 ISZERO PUSH3 0x1C2 JUMPI DUP1 DUP3 SUB DUP1 MLOAD PUSH1 0x1 DUP4 PUSH1 0x20 SUB PUSH2 0x100 EXP SUB NOT AND DUP2 MSTORE PUSH1 0x20 ADD SWAP2 POP JUMPDEST POP PUSH1 0x40 MSTORE POP POP POP CALLER PUSH1 0x6 PUSH1 0x0 PUSH2 0x100 EXP DUP2 SLOAD DUP2 PUSH20 0xFFFFFFFFFFFFFFFFFFFFFFFFFFFFFFFFFFFFFFFF MUL NOT AND SWAP1 DUP4 PUSH20 0xFFFFFFFFFFFFFFFFFFFFFFFFFFFFFFFFFFFFFFFF AND MUL OR SWAP1 SSTORE POP DUP4 PUSH1 0x1 PUSH1 0x0 CALLER PUSH20 0xFFFFFFFFFFFFFFFFFFFFFFFFFFFFFFFFFFFFFFFF AND PUSH20 0xFFFFFFFFFFFFFFFFFFFFFFFFFFFFFFFFFFFFFFFF AND DUP2 MSTORE PUSH1 0x20 ADD SWAP1 DUP2 MSTORE PUSH1 0x20 ADD PUSH1 0x0 KECCAK256 DUP2 SWAP1 SSTORE POP DUP4 PUSH1 0x0 DUP2 SWAP1 SSTORE POP DUP3 PUSH1 0x3 SWAP1 DUP1 MLOAD SWAP1 PUSH1 0x20 ADD SWAP1 PUSH3 0x26D SWAP3 SWAP2 SWAP1 PUSH3 0x2AC JUMP JUMPDEST POP DUP2 PUSH1 0x4 PUSH1 0x0 PUSH2 0x100 EXP DUP2 SLOAD DUP2 PUSH1 0xFF MUL NOT AND SWAP1 DUP4 PUSH1 0xFF AND MUL OR SWAP1 SSTORE POP DUP1 PUSH1 0x5 SWAP1 DUP1 MLOAD SWAP1 PUSH1 0x20 ADD SWAP1 PUSH3 0x2A1 SWAP3 SWAP2 SWAP1 PUSH3 0x2AC JUMP JUMPDEST POP POP POP POP POP PUSH3 0x362 JUMP JUMPDEST DUP3 DUP1 SLOAD PUSH1 0x1 DUP2 PUSH1 0x1 AND ISZERO PUSH2 0x100 MUL SUB AND PUSH1 0x2 SWAP1 DIV SWAP1 PUSH1 0x0 MSTORE PUSH1 0x20 PUSH1 0x0 KECCAK256 SWAP1 PUSH1 0x1F ADD PUSH1 0x20 SWAP1 DIV DUP2 ADD SWAP3 DUP3 PUSH3 0x2E4 JUMPI PUSH1 0x0 DUP6 SSTORE PUSH3 0x330 JUMP JUMPDEST DUP3 PUSH1 0x1F LT PUSH3 0x2FF JUMPI DUP1 MLOAD PUSH1 0xFF NOT AND DUP4 DUP1 ADD OR DUP6 SSTORE PUSH3 0x330 JUMP JUMPDEST DUP3 DUP1 ADD PUSH1 0x1 ADD DUP6 SSTORE DUP3 ISZERO PUSH3 0x330 JUMPI SWAP2 DUP3 ADD JUMPDEST DUP3 DUP2 GT ISZERO PUSH3 0x32F JUMPI DUP3 MLOAD DUP3 SSTORE SWAP2 PUSH1 0x20 ADD SWAP2 SWAP1 PUSH1 0x1 ADD SWAP1 PUSH3 0x312 JUMP JUMPDEST JUMPDEST POP SWAP1 POP PUSH3 0x33F SWAP2 SWAP1 PUSH3 0x343 JUMP JUMPDEST POP SWAP1 JUMP JUMPDEST JUMPDEST DUP1 DUP3 GT ISZERO PUSH3 0x35E JUMPI PUSH1 0x0 DUP2 PUSH1 0x0 SWAP1 SSTORE POP PUSH1 0x1 ADD PUSH3 0x344 JUMP JUMPDEST POP SWAP1 JUMP JUMPDEST PUSH2 0x1039 DUP1 PUSH3 0x372 PUSH1 0x0 CODECOPY PUSH1 0x0 RETURN INVALID PUSH1 0x80 PUSH1 0x40 MSTORE PUSH1 0x4 CALLDATASIZE LT PUSH2 0xE1 JUMPI PUSH1 0x0 CALLDATALOAD PUSH1 0xE0 SHR DUP1 PUSH4 0x481C6A75 GT PUSH2 0x7F JUMPI DUP1 PUSH4 0x95D89B41 GT PUSH2 0x59 JUMPI DUP1 PUSH4 0x95D89B41 EQ PUSH2 0x4A3 JUMPI DUP1 PUSH4 0xA9059CBB EQ PUSH2 0x533 JUMPI DUP1 PUSH4 0xDD62ED3E EQ PUSH2 0x5A4 JUMPI DUP1 PUSH4 0xF3F7D04F EQ PUSH2 0x629 JUMPI PUSH2 0xE8 JUMP JUMPDEST DUP1 PUSH4 0x481C6A75 EQ PUSH2 0x378 JUMPI DUP1 PUSH4 0x5C658165 EQ PUSH2 0x3B9 JUMPI DUP1 PUSH4 0x70A08231 EQ PUSH2 0x43E JUMPI PUSH2 0xE8 JUMP JUMPDEST DUP1 PUSH4 0x1B166792 GT PUSH2 0xBB JUMPI DUP1 PUSH4 0x1B166792 EQ PUSH2 0x219 JUMPI DUP1 PUSH4 0x23B872DD EQ PUSH2 0x254 JUMPI DUP1 PUSH4 0x27E235E3 EQ PUSH2 0x2E5 JUMPI DUP1 PUSH4 0x313CE567 EQ PUSH2 0x34A JUMPI PUSH2 0xE8 JUMP JUMPDEST DUP1 PUSH4 0x6FDDE03 EQ PUSH2 0xED JUMPI DUP1 PUSH4 0x95EA7B3 EQ PUSH2 0x17D JUMPI DUP1 PUSH4 0x18160DDD EQ PUSH2 0x1EE JUMPI PUSH2 0xE8 JUMP JUMPDEST CALLDATASIZE PUSH2 0xE8 JUMPI STOP JUMPDEST PUSH1 0x0 DUP1 REVERT JUMPDEST CALLVALUE DUP1 ISZERO PUSH2 0xF9 JUMPI PUSH1 0x0 DUP1 REVERT JUMPDEST POP PUSH2 0x102 PUSH2 0x664 JUMP JUMPDEST PUSH1 0x40 MLOAD DUP1 DUP1 PUSH1 0x20 ADD DUP3 DUP2 SUB DUP3 MSTORE DUP4 DUP2 DUP2 MLOAD DUP2 MSTORE PUSH1 0x20 ADD SWAP2 POP DUP1 MLOAD SWAP1 PUSH1 0x20 ADD SWAP1 DUP1 DUP4 DUP4 PUSH1 0x0 JUMPDEST DUP4 DUP2 LT ISZERO PUSH2 0x142 JUMPI DUP1 DUP3 ADD MLOAD DUP2 DUP5 ADD MSTORE PUSH1 0x20 DUP2 ADD SWAP1 POP PUSH2 0x127 JUMP JUMPDEST POP POP POP POP SWAP1 POP SWAP1 DUP2 ADD SWAP1 PUSH1 0x1F AND DUP1 ISZERO PUSH2 0x16F JUMPI DUP1 DUP3 SUB DUP1 MLOAD PUSH1 0x1 DUP4 PUSH1 0x20 SUB PUSH2 0x100 EXP SUB NOT AND DUP2 MSTORE PUSH1 0x20 ADD SWAP2 POP JUMPDEST POP SWAP3 POP POP POP PUSH1 0x40 MLOAD DUP1 SWAP2 SUB SWAP1 RETURN JUMPDEST CALLVALUE DUP1 ISZERO PUSH2 0x189 JUMPI PUSH1 0x0 DUP1 REVERT JUMPDEST POP PUSH2 0x1D6 PUSH1 0x4 DUP1 CALLDATASIZE SUB PUSH1 0x40 DUP2 LT ISZERO PUSH2 0x1A0 JUMPI PUSH1 0x0 DUP1 REVERT JUMPDEST DUP2 ADD SWAP1 DUP1 DUP1 CALLDATALOAD PUSH20 0xFFFFFFFFFFFFFFFFFFFFFFFFFFFFFFFFFFFFFFFF AND SWAP1 PUSH1 0x20 ADD SWAP1 SWAP3 SWAP2 SWAP1 DUP1 CALLDATALOAD SWAP1 PUSH1 0x20 ADD SWAP1 SWAP3 SWAP2 SWAP1 POP POP POP PUSH2 0x702 JUMP JUMPDEST PUSH1 0x40 MLOAD DUP1 DUP3 ISZERO ISZERO DUP2 MSTORE PUSH1 0x20 ADD SWAP2 POP POP PUSH1 0x40 MLOAD DUP1 SWAP2 SUB SWAP1 RETURN JUMPDEST CALLVALUE DUP1 ISZERO PUSH2 0x1FA JUMPI PUSH1 0x0 DUP1 REVERT JUMPDEST POP PUSH2 0x203 PUSH2 0x7F4 JUMP JUMPDEST PUSH1 0x40 MLOAD DUP1 DUP3 DUP2 MSTORE PUSH1 0x20 ADD SWAP2 POP POP PUSH1 0x40 MLOAD DUP1 SWAP2 SUB SWAP1 RETURN JUMPDEST CALLVALUE DUP1 ISZERO PUSH2 0x225 JUMPI PUSH1 0x0 DUP1 REVERT JUMPDEST POP PUSH2 0x252 PUSH1 0x4 DUP1 CALLDATASIZE SUB PUSH1 0x20 DUP2 LT ISZERO PUSH2 0x23C JUMPI PUSH1 0x0 DUP1 REVERT JUMPDEST DUP2 ADD SWAP1 DUP1 DUP1 CALLDATALOAD SWAP1 PUSH1 0x20 ADD SWAP1 SWAP3 SWAP2 SWAP1 POP POP POP PUSH2 0x7FA JUMP JUMPDEST STOP JUMPDEST CALLVALUE DUP1 ISZERO PUSH2 0x260 JUMPI PUSH1 0x0 DUP1 REVERT JUMPDEST POP PUSH2 0x2CD PUSH1 0x4 DUP1 CALLDATASIZE SUB PUSH1 0x60 DUP2 LT ISZERO PUSH2 0x277 JUMPI PUSH1 0x0 DUP1 REVERT JUMPDEST DUP2 ADD SWAP1 DUP1 DUP1 CALLDATALOAD PUSH20 0xFFFFFFFFFFFFFFFFFFFFFFFFFFFFFFFFFFFFFFFF AND SWAP1 PUSH1 0x20 ADD SWAP1 SWAP3 SWAP2 SWAP1 DUP1 CALLDATALOAD PUSH20 0xFFFFFFFFFFFFFFFFFFFFFFFFFFFFFFFFFFFFFFFF AND SWAP1 PUSH1 0x20 ADD SWAP1 SWAP3 SWAP2 SWAP1 DUP1 CALLDATALOAD SWAP1 PUSH1 0x20 ADD SWAP1 SWAP3 SWAP2 SWAP1 POP POP POP PUSH2 0x955 JUMP JUMPDEST PUSH1 0x40 MLOAD DUP1 DUP3 ISZERO ISZERO DUP2 MSTORE PUSH1 0x20 ADD SWAP2 POP POP PUSH1 0x40 MLOAD DUP1 SWAP2 SUB SWAP1 RETURN JUMPDEST CALLVALUE DUP1 ISZERO PUSH2 0x2F1 JUMPI PUSH1 0x0 DUP1 REVERT JUMPDEST POP PUSH2 0x334 PUSH1 0x4 DUP1 CALLDATASIZE SUB PUSH1 0x20 DUP2 LT ISZERO PUSH2 0x308 JUMPI PUSH1 0x0 DUP1 REVERT JUMPDEST DUP2 ADD SWAP1 DUP1 DUP1 CALLDATALOAD PUSH20 0xFFFFFFFFFFFFFFFFFFFFFFFFFFFFFFFFFFFFFFFF AND SWAP1 PUSH1 0x20 ADD SWAP1 SWAP3 SWAP2 SWAP1 POP POP POP PUSH2 0xBED JUMP JUMPDEST PUSH1 0x40 MLOAD DUP1 DUP3 DUP2 MSTORE PUSH1 0x20 ADD SWAP2 POP POP PUSH1 0x40 MLOAD DUP1 SWAP2 SUB SWAP1 RETURN JUMPDEST CALLVALUE DUP1 ISZERO PUSH2 0x356 JUMPI PUSH1 0x0 DUP1 REVERT JUMPDEST POP PUSH2 0x35F PUSH2 0xC05 JUMP JUMPDEST PUSH1 0x40 MLOAD DUP1 DUP3 PUSH1 0xFF AND DUP2 MSTORE PUSH1 0x20 ADD SWAP2 POP POP PUSH1 0x40 MLOAD DUP1 SWAP2 SUB SWAP1 RETURN JUMPDEST CALLVALUE DUP1 ISZERO PUSH2 0x384 JUMPI PUSH1 0x0 DUP1 REVERT JUMPDEST POP PUSH2 0x38D PUSH2 0xC18 JUMP JUMPDEST PUSH1 0x40 MLOAD DUP1 DUP3 PUSH20 0xFFFFFFFFFFFFFFFFFFFFFFFFFFFFFFFFFFFFFFFF AND DUP2 MSTORE PUSH1 0x20 ADD SWAP2 POP POP PUSH1 0x40 MLOAD DUP1 SWAP2 SUB SWAP1 RETURN JUMPDEST CALLVALUE DUP1 ISZERO PUSH2 0x3C5 JUMPI PUSH1 0x0 DUP1 REVERT JUMPDEST POP PUSH2 0x428 PUSH1 0x4 DUP1 CALLDATASIZE SUB PUSH1 0x40 DUP2 LT ISZERO PUSH2 0x3DC JUMPI PUSH1 0x0 DUP1 REVERT JUMPDEST DUP2 ADD SWAP1 DUP1 DUP1 CALLDATALOAD PUSH20 0xFFFFFFFFFFFFFFFFFFFFFFFFFFFFFFFFFFFFFFFF AND SWAP1 PUSH1 0x20 ADD SWAP1 SWAP3 SWAP2 SWAP1 DUP1 CALLDATALOAD PUSH20 0xFFFFFFFFFFFFFFFFFFFFFFFFFFFFFFFFFFFFFFFF AND SWAP1 PUSH1 0x20 ADD SWAP1 SWAP3 SWAP2 SWAP1 POP POP POP PUSH2 0xC3E JUMP JUMPDEST PUSH1 0x40 MLOAD DUP1 DUP3 DUP2 MSTORE PUSH1 0x20 ADD SWAP2 POP POP PUSH1 0x40 MLOAD DUP1 SWAP2 SUB SWAP1 RETURN JUMPDEST CALLVALUE DUP1 ISZERO PUSH2 0x44A JUMPI PUSH1 0x0 DUP1 REVERT JUMPDEST POP PUSH2 0x48D PUSH1 0x4 DUP1 CALLDATASIZE SUB PUSH1 0x20 DUP2 LT ISZERO PUSH2 0x461 JUMPI PUSH1 0x0 DUP1 REVERT JUMPDEST DUP2 ADD SWAP1 DUP1 DUP1 CALLDATALOAD PUSH20 0xFFFFFFFFFFFFFFFFFFFFFFFFFFFFFFFFFFFFFFFF AND SWAP1 PUSH1 0x20 ADD SWAP1 SWAP3 SWAP2 SWAP1 POP POP POP PUSH2 0xC63 JUMP JUMPDEST PUSH1 0x40 MLOAD DUP1 DUP3 DUP2 MSTORE PUSH1 0x20 ADD SWAP2 POP POP PUSH1 0x40 MLOAD DUP1 SWAP2 SUB SWAP1 RETURN JUMPDEST CALLVALUE DUP1 ISZERO PUSH2 0x4AF JUMPI PUSH1 0x0 DUP1 REVERT JUMPDEST POP PUSH2 0x4B8 PUSH2 0xCAC JUMP JUMPDEST PUSH1 0x40 MLOAD DUP1 DUP1 PUSH1 0x20 ADD DUP3 DUP2 SUB DUP3 MSTORE DUP4 DUP2 DUP2 MLOAD DUP2 MSTORE PUSH1 0x20 ADD SWAP2 POP DUP1 MLOAD SWAP1 PUSH1 0x20 ADD SWAP1 DUP1 DUP4 DUP4 PUSH1 0x0 JUMPDEST DUP4 DUP2 LT ISZERO PUSH2 0x4F8 JUMPI DUP1 DUP3 ADD MLOAD DUP2 DUP5 ADD MSTORE PUSH1 0x20 DUP2 ADD SWAP1 POP PUSH2 0x4DD JUMP JUMPDEST POP POP POP POP SWAP1 POP SWAP1 DUP2 ADD SWAP1 PUSH1 0x1F AND DUP1 ISZERO PUSH2 0x525 JUMPI DUP1 DUP3 SUB DUP1 MLOAD PUSH1 0x1 DUP4 PUSH1 0x20 SUB PUSH2 0x100 EXP SUB NOT AND DUP2 MSTORE PUSH1 0x20 ADD SWAP2 POP JUMPDEST POP SWAP3 POP POP POP PUSH1 0x40 MLOAD DUP1 SWAP2 SUB SWAP1 RETURN JUMPDEST CALLVALUE DUP1 ISZERO PUSH2 0x53F JUMPI PUSH1 0x0 DUP1 REVERT JUMPDEST POP PUSH2 0x58C PUSH1 0x4 DUP1 CALLDATASIZE SUB PUSH1 0x40 DUP2 LT ISZERO PUSH2 0x556 JUMPI PUSH1 0x0 DUP1 REVERT JUMPDEST DUP2 ADD SWAP1 DUP1 DUP1 CALLDATALOAD PUSH20 0xFFFFFFFFFFFFFFFFFFFFFFFFFFFFFFFFFFFFFFFF AND SWAP1 PUSH1 0x20 ADD SWAP1 SWAP3 SWAP2 SWAP1 DUP1 CALLDATALOAD SWAP1 PUSH1 0x20 ADD SWAP1 SWAP3 SWAP2 SWAP1 POP POP POP PUSH2 0xD4A JUMP JUMPDEST PUSH1 0x40 MLOAD DUP1 DUP3 ISZERO ISZERO DUP2 MSTORE PUSH1 0x20 ADD SWAP2 POP POP PUSH1 0x40 MLOAD DUP1 SWAP2 SUB SWAP1 RETURN JUMPDEST CALLVALUE DUP1 ISZERO PUSH2 0x5B0 JUMPI PUSH1 0x0 DUP1 REVERT JUMPDEST POP PUSH2 0x613 PUSH1 0x4 DUP1 CALLDATASIZE SUB PUSH1 0x40 DUP2 LT ISZERO PUSH2 0x5C7 JUMPI PUSH1 0x0 DUP1 REVERT JUMPDEST DUP2 ADD SWAP1 DUP1 DUP1 CALLDATALOAD PUSH20 0xFFFFFFFFFFFFFFFFFFFFFFFFFFFFFFFFFFFFFFFF AND SWAP1 PUSH1 0x20 ADD SWAP1 SWAP3 SWAP2 SWAP1 DUP1 CALLDATALOAD PUSH20 0xFFFFFFFFFFFFFFFFFFFFFFFFFFFFFFFFFFFFFFFF AND SWAP1 PUSH1 0x20 ADD SWAP1 SWAP3 SWAP2 SWAP1 POP POP POP PUSH2 0xEA1 JUMP JUMPDEST PUSH1 0x40 MLOAD DUP1 DUP3 DUP2 MSTORE PUSH1 0x20 ADD SWAP2 POP POP PUSH1 0x40 MLOAD DUP1 SWAP2 SUB SWAP1 RETURN JUMPDEST CALLVALUE DUP1 ISZERO PUSH2 0x635 JUMPI PUSH1 0x0 DUP1 REVERT JUMPDEST POP PUSH2 0x662 PUSH1 0x4 DUP1 CALLDATASIZE SUB PUSH1 0x20 DUP2 LT ISZERO PUSH2 0x64C JUMPI PUSH1 0x0 DUP1 REVERT JUMPDEST DUP2 ADD SWAP1 DUP1 DUP1 CALLDATALOAD SWAP1 PUSH1 0x20 ADD SWAP1 SWAP3 SWAP2 SWAP1 POP POP POP PUSH2 0xF28 JUMP JUMPDEST STOP JUMPDEST PUSH1 0x3 DUP1 SLOAD PUSH1 0x1 DUP2 PUSH1 0x1 AND ISZERO PUSH2 0x100 MUL SUB AND PUSH1 0x2 SWAP1 DIV DUP1 PUSH1 0x1F ADD PUSH1 0x20 DUP1 SWAP2 DIV MUL PUSH1 0x20 ADD PUSH1 0x40 MLOAD SWAP1 DUP2 ADD PUSH1 0x40 MSTORE DUP1 SWAP3 SWAP2 SWAP1 DUP2 DUP2 MSTORE PUSH1 0x20 ADD DUP3 DUP1 SLOAD PUSH1 0x1 DUP2 PUSH1 0x1 AND ISZERO PUSH2 0x100 MUL SUB AND PUSH1 0x2 SWAP1 DIV DUP1 ISZERO PUSH2 0x6FA JUMPI DUP1 PUSH1 0x1F LT PUSH2 0x6CF JUMPI PUSH2 0x100 DUP1 DUP4 SLOAD DIV MUL DUP4 MSTORE SWAP2 PUSH1 0x20 ADD SWAP2 PUSH2 0x6FA JUMP JUMPDEST DUP3 ADD SWAP2 SWAP1 PUSH1 0x0 MSTORE PUSH1 0x20 PUSH1 0x0 KECCAK256 SWAP1 JUMPDEST DUP2 SLOAD DUP2 MSTORE SWAP1 PUSH1 0x1 ADD SWAP1 PUSH1 0x20 ADD DUP1 DUP4 GT PUSH2 0x6DD JUMPI DUP3 SWAP1 SUB PUSH1 0x1F AND DUP3 ADD SWAP2 JUMPDEST POP POP POP POP POP DUP2 JUMP JUMPDEST PUSH1 0x0 DUP2 PUSH1 0x2 PUSH1 0x0 CALLER PUSH20 0xFFFFFFFFFFFFFFFFFFFFFFFFFFFFFFFFFFFFFFFF AND PUSH20 0xFFFFFFFFFFFFFFFFFFFFFFFFFFFFFFFFFFFFFFFF AND DUP2 MSTORE PUSH1 0x20 ADD SWAP1 DUP2 MSTORE PUSH1 0x20 ADD PUSH1 0x0 KECCAK256 PUSH1 0x0 DUP6 PUSH20 0xFFFFFFFFFFFFFFFFFFFFFFFFFFFFFFFFFFFFFFFF AND PUSH20 0xFFFFFFFFFFFFFFFFFFFFFFFFFFFFFFFFFFFFFFFF AND DUP2 MSTORE PUSH1 0x20 ADD SWAP1 DUP2 MSTORE PUSH1 0x20 ADD PUSH1 0x0 KECCAK256 DUP2 SWAP1 SSTORE POP DUP3 PUSH20 0xFFFFFFFFFFFFFFFFFFFFFFFFFFFFFFFFFFFFFFFF AND CALLER PUSH20 0xFFFFFFFFFFFFFFFFFFFFFFFFFFFFFFFFFFFFFFFF AND PUSH32 0x8C5BE1E5EBEC7D5BD14F71427D1E84F3DD0314C0F7B2291E5B200AC8C7C3B925 DUP5 PUSH1 0x40 MLOAD DUP1 DUP3 DUP2 MSTORE PUSH1 0x20 ADD SWAP2 POP POP PUSH1 0x40 MLOAD DUP1 SWAP2 SUB SWAP1 LOG3 PUSH1 0x1 SWAP1 POP SWAP3 SWAP2 POP POP JUMP JUMPDEST PUSH1 0x0 SLOAD DUP2 JUMP JUMPDEST DUP1 PUSH1 0x1 PUSH1 0x0 CALLER PUSH20 0xFFFFFFFFFFFFFFFFFFFFFFFFFFFFFFFFFFFFFFFF AND PUSH20 0xFFFFFFFFFFFFFFFFFFFFFFFFFFFFFFFFFFFFFFFF AND DUP2 MSTORE PUSH1 0x20 ADD SWAP1 DUP2 MSTORE PUSH1 0x20 ADD PUSH1 0x0 KECCAK256 SLOAD LT ISZERO PUSH2 0x846 JUMPI PUSH1 0x0 DUP1 REVERT JUMPDEST DUP1 PUSH1 0x1 PUSH1 0x0 CALLER PUSH20 0xFFFFFFFFFFFFFFFFFFFFFFFFFFFFFFFFFFFFFFFF AND PUSH20 0xFFFFFFFFFFFFFFFFFFFFFFFFFFFFFFFFFFFFFFFF AND DUP2 MSTORE PUSH1 0x20 ADD SWAP1 DUP2 MSTORE PUSH1 0x20 ADD PUSH1 0x0 KECCAK256 PUSH1 0x0 DUP3 DUP3 SLOAD SUB SWAP3 POP POP DUP2 SWAP1 SSTORE POP DUP1 PUSH1 0x1 PUSH1 0x0 PUSH1 0x6 PUSH1 0x0 SWAP1 SLOAD SWAP1 PUSH2 0x100 EXP SWAP1 DIV PUSH20 0xFFFFFFFFFFFFFFFFFFFFFFFFFFFFFFFFFFFFFFFF AND PUSH20 0xFFFFFFFFFFFFFFFFFFFFFFFFFFFFFFFFFFFFFFFF AND PUSH20 0xFFFFFFFFFFFFFFFFFFFFFFFFFFFFFFFFFFFFFFFF AND DUP2 MSTORE PUSH1 0x20 ADD SWAP1 DUP2 MSTORE PUSH1 0x20 ADD PUSH1 0x0 KECCAK256 PUSH1 0x0 DUP3 DUP3 SLOAD ADD SWAP3 POP POP DUP2 SWAP1 SSTORE POP CALLER PUSH20 0xFFFFFFFFFFFFFFFFFFFFFFFFFFFFFFFFFFFFFFFF AND PUSH2 0x8FC PUSH7 0x2386F26FC10000 DUP4 MUL SWAP1 DUP2 ISZERO MUL SWAP1 PUSH1 0x40 MLOAD PUSH1 0x0 PUSH1 0x40 MLOAD DUP1 DUP4 SUB DUP2 DUP6 DUP9 DUP9 CALL SWAP4 POP POP POP POP ISZERO DUP1 ISZERO PUSH2 0x951 JUMPI RETURNDATASIZE PUSH1 0x0 DUP1 RETURNDATACOPY RETURNDATASIZE PUSH1 0x0 REVERT JUMPDEST POP POP JUMP JUMPDEST PUSH1 0x0 DUP1 PUSH1 0x2 PUSH1 0x0 DUP7 PUSH20 0xFFFFFFFFFFFFFFFFFFFFFFFFFFFFFFFFFFFFFFFF AND PUSH20 0xFFFFFFFFFFFFFFFFFFFFFFFFFFFFFFFFFFFFFFFF AND DUP2 MSTORE PUSH1 0x20 ADD SWAP1 DUP2 MSTORE PUSH1 0x20 ADD PUSH1 0x0 KECCAK256 PUSH1 0x0 CALLER PUSH20 0xFFFFFFFFFFFFFFFFFFFFFFFFFFFFFFFFFFFFFFFF AND PUSH20 0xFFFFFFFFFFFFFFFFFFFFFFFFFFFFFFFFFFFFFFFF AND DUP2 MSTORE PUSH1 0x20 ADD SWAP1 DUP2 MSTORE PUSH1 0x20 ADD PUSH1 0x0 KECCAK256 SLOAD SWAP1 POP DUP3 PUSH1 0x1 PUSH1 0x0 DUP8 PUSH20 0xFFFFFFFFFFFFFFFFFFFFFFFFFFFFFFFFFFFFFFFF AND PUSH20 0xFFFFFFFFFFFFFFFFFFFFFFFFFFFFFFFFFFFFFFFF AND DUP2 MSTORE PUSH1 0x20 ADD SWAP1 DUP2 MSTORE PUSH1 0x20 ADD PUSH1 0x0 KECCAK256 SLOAD LT ISZERO DUP1 ISZERO PUSH2 0xA26 JUMPI POP DUP3 DUP2 LT ISZERO JUMPDEST PUSH2 0xA2F JUMPI PUSH1 0x0 DUP1 REVERT JUMPDEST DUP3 PUSH1 0x1 PUSH1 0x0 DUP7 PUSH20 0xFFFFFFFFFFFFFFFFFFFFFFFFFFFFFFFFFFFFFFFF AND PUSH20 0xFFFFFFFFFFFFFFFFFFFFFFFFFFFFFFFFFFFFFFFF AND DUP2 MSTORE PUSH1 0x20 ADD SWAP1 DUP2 MSTORE PUSH1 0x20 ADD PUSH1 0x0 KECCAK256 PUSH1 0x0 DUP3 DUP3 SLOAD ADD SWAP3 POP POP DUP2 SWAP1 SSTORE POP DUP3 PUSH1 0x1 PUSH1 0x0 DUP8 PUSH20 0xFFFFFFFFFFFFFFFFFFFFFFFFFFFFFFFFFFFFFFFF AND PUSH20 0xFFFFFFFFFFFFFFFFFFFFFFFFFFFFFFFFFFFFFFFF AND DUP2 MSTORE PUSH1 0x20 ADD SWAP1 DUP2 MSTORE PUSH1 0x20 ADD PUSH1 0x0 KECCAK256 PUSH1 0x0 DUP3 DUP3 SLOAD SUB SWAP3 POP POP DUP2 SWAP1 SSTORE POP PUSH32 0xFFFFFFFFFFFFFFFFFFFFFFFFFFFFFFFFFFFFFFFFFFFFFFFFFFFFFFFFFFFFFFFF DUP2 LT ISZERO PUSH2 0xB7C JUMPI DUP3 PUSH1 0x2 PUSH1 0x0 DUP8 PUSH20 0xFFFFFFFFFFFFFFFFFFFFFFFFFFFFFFFFFFFFFFFF AND PUSH20 0xFFFFFFFFFFFFFFFFFFFFFFFFFFFFFFFFFFFFFFFF AND DUP2 MSTORE PUSH1 0x20 ADD SWAP1 DUP2 MSTORE PUSH1 0x20 ADD PUSH1 0x0 KECCAK256 PUSH1 0x0 CALLER PUSH20 0xFFFFFFFFFFFFFFFFFFFFFFFFFFFFFFFFFFFFFFFF AND PUSH20 0xFFFFFFFFFFFFFFFFFFFFFFFFFFFFFFFFFFFFFFFF AND DUP2 MSTORE PUSH1 0x20 ADD SWAP1 DUP2 MSTORE PUSH1 0x20 ADD PUSH1 0x0 KECCAK256 PUSH1 0x0 DUP3 DUP3 SLOAD SUB SWAP3 POP POP DUP2 SWAP1 SSTORE POP JUMPDEST DUP4 PUSH20 0xFFFFFFFFFFFFFFFFFFFFFFFFFFFFFFFFFFFFFFFF AND DUP6 PUSH20 0xFFFFFFFFFFFFFFFFFFFFFFFFFFFFFFFFFFFFFFFF AND PUSH32 0xDDF252AD1BE2C89B69C2B068FC378DAA952BA7F163C4A11628F55A4DF523B3EF DUP6 PUSH1 0x40 MLOAD DUP1 DUP3 DUP2 MSTORE PUSH1 0x20 ADD SWAP2 POP POP PUSH1 0x40 MLOAD DUP1 SWAP2 SUB SWAP1 LOG3 PUSH1 0x1 SWAP2 POP POP SWAP4 SWAP3 POP POP POP JUMP JUMPDEST PUSH1 0x1 PUSH1 0x20 MSTORE DUP1 PUSH1 0x0 MSTORE PUSH1 0x40 PUSH1 0x0 KECCAK256 PUSH1 0x0 SWAP2 POP SWAP1 POP SLOAD DUP2 JUMP JUMPDEST PUSH1 0x4 PUSH1 0x0 SWAP1 SLOAD SWAP1 PUSH2 0x100 EXP SWAP1 DIV PUSH1 0xFF AND DUP2 JUMP JUMPDEST PUSH1 0x6 PUSH1 0x0 SWAP1 SLOAD SWAP1 PUSH2 0x100 EXP SWAP1 DIV PUSH20 0xFFFFFFFFFFFFFFFFFFFFFFFFFFFFFFFFFFFFFFFF AND DUP2 JUMP JUMPDEST PUSH1 0x2 PUSH1 0x20 MSTORE DUP2 PUSH1 0x0 MSTORE PUSH1 0x40 PUSH1 0x0 KECCAK256 PUSH1 0x20 MSTORE DUP1 PUSH1 0x0 MSTORE PUSH1 0x40 PUSH1 0x0 KECCAK256 PUSH1 0x0 SWAP2 POP SWAP2 POP POP SLOAD DUP2 JUMP JUMPDEST PUSH1 0x0 PUSH1 0x1 PUSH1 0x0 DUP4 PUSH20 0xFFFFFFFFFFFFFFFFFFFFFFFFFFFFFFFFFFFFFFFF AND PUSH20 0xFFFFFFFFFFFFFFFFFFFFFFFFFFFFFFFFFFFFFFFF AND DUP2 MSTORE PUSH1 0x20 ADD SWAP1 DUP2 MSTORE PUSH1 0x20 ADD PUSH1 0x0 KECCAK256 SLOAD SWAP1 POP SWAP2 SWAP1 POP JUMP JUMPDEST PUSH1 0x5 DUP1 SLOAD PUSH1 0x1 DUP2 PUSH1 0x1 AND ISZERO PUSH2 0x100 MUL SUB AND PUSH1 0x2 SWAP1 DIV DUP1 PUSH1 0x1F ADD PUSH1 0x20 DUP1 SWAP2 DIV MUL PUSH1 0x20 ADD PUSH1 0x40 MLOAD SWAP1 DUP2 ADD PUSH1 0x40 MSTORE DUP1 SWAP3 SWAP2 SWAP1 DUP2 DUP2 MSTORE PUSH1 0x20 ADD DUP3 DUP1 SLOAD PUSH1 0x1 DUP2 PUSH1 0x1 AND ISZERO PUSH2 0x100 MUL SUB AND PUSH1 0x2 SWAP1 DIV DUP1 ISZERO PUSH2 0xD42 JUMPI DUP1 PUSH1 0x1F LT PUSH2 0xD17 JUMPI PUSH2 0x100 DUP1 DUP4 SLOAD DIV MUL DUP4 MSTORE SWAP2 PUSH1 0x20 ADD SWAP2 PUSH2 0xD42 JUMP JUMPDEST DUP3 ADD SWAP2 SWAP1 PUSH1 0x0 MSTORE PUSH1 0x20 PUSH1 0x0 KECCAK256 SWAP1 JUMPDEST DUP2 SLOAD DUP2 MSTORE SWAP1 PUSH1 0x1 ADD SWAP1 PUSH1 0x20 ADD DUP1 DUP4 GT PUSH2 0xD25 JUMPI DUP3 SWAP1 SUB PUSH1 0x1F AND DUP3 ADD SWAP2 JUMPDEST POP POP POP POP POP DUP2 JUMP JUMPDEST PUSH1 0x0 DUP2 PUSH1 0x1 PUSH1 0x0 CALLER PUSH20 0xFFFFFFFFFFFFFFFFFFFFFFFFFFFFFFFFFFFFFFFF AND PUSH20 0xFFFFFFFFFFFFFFFFFFFFFFFFFFFFFFFFFFFFFFFF AND DUP2 MSTORE PUSH1 0x20 ADD SWAP1 DUP2 MSTORE PUSH1 0x20 ADD PUSH1 0x0 KECCAK256 SLOAD LT ISZERO PUSH2 0xD98 JUMPI PUSH1 0x0 DUP1 REVERT JUMPDEST DUP2 PUSH1 0x1 PUSH1 0x0 CALLER PUSH20 0xFFFFFFFFFFFFFFFFFFFFFFFFFFFFFFFFFFFFFFFF AND PUSH20 0xFFFFFFFFFFFFFFFFFFFFFFFFFFFFFFFFFFFFFFFF AND DUP2 MSTORE PUSH1 0x20 ADD SWAP1 DUP2 MSTORE PUSH1 0x20 ADD PUSH1 0x0 KECCAK256 PUSH1 0x0 DUP3 DUP3 SLOAD SUB SWAP3 POP POP DUP2 SWAP1 SSTORE POP DUP2 PUSH1 0x1 PUSH1 0x0 DUP6 PUSH20 0xFFFFFFFFFFFFFFFFFFFFFFFFFFFFFFFFFFFFFFFF AND PUSH20 0xFFFFFFFFFFFFFFFFFFFFFFFFFFFFFFFFFFFFFFFF AND DUP2 MSTORE PUSH1 0x20 ADD SWAP1 DUP2 MSTORE PUSH1 0x20 ADD PUSH1 0x0 KECCAK256 PUSH1 0x0 DUP3 DUP3 SLOAD ADD SWAP3 POP POP DUP2 SWAP1 SSTORE POP DUP3 PUSH20 0xFFFFFFFFFFFFFFFFFFFFFFFFFFFFFFFFFFFFFFFF AND CALLER PUSH20 0xFFFFFFFFFFFFFFFFFFFFFFFFFFFFFFFFFFFFFFFF AND PUSH32 0xDDF252AD1BE2C89B69C2B068FC378DAA952BA7F163C4A11628F55A4DF523B3EF DUP5 PUSH1 0x40 MLOAD DUP1 DUP3 DUP2 MSTORE PUSH1 0x20 ADD SWAP2 POP POP PUSH1 0x40 MLOAD DUP1 SWAP2 SUB SWAP1 LOG3 PUSH1 0x1 SWAP1 POP SWAP3 SWAP2 POP POP JUMP JUMPDEST PUSH1 0x0 PUSH1 0x2 PUSH1 0x0 DUP5 PUSH20 0xFFFFFFFFFFFFFFFFFFFFFFFFFFFFFFFFFFFFFFFF AND PUSH20 0xFFFFFFFFFFFFFFFFFFFFFFFFFFFFFFFFFFFFFFFF AND DUP2 MSTORE PUSH1 0x20 ADD SWAP1 DUP2 MSTORE PUSH1 0x20 ADD PUSH1 0x0 KECCAK256 PUSH1 0x0 DUP4 PUSH20 0xFFFFFFFFFFFFFFFFFFFFFFFFFFFFFFFFFFFFFFFF AND PUSH20 0xFFFFFFFFFFFFFFFFFFFFFFFFFFFFFFFFFFFFFFFF AND DUP2 MSTORE PUSH1 0x20 ADD SWAP1 DUP2 MSTORE PUSH1 0x20 ADD PUSH1 0x0 KECCAK256 SLOAD SWAP1 POP SWAP3 SWAP2 POP POP JUMP JUMPDEST PUSH1 0x6 PUSH1 0x0 SWAP1 SLOAD SWAP1 PUSH2 0x100 EXP SWAP1 DIV PUSH20 0xFFFFFFFFFFFFFFFFFFFFFFFFFFFFFFFFFFFFFFFF AND PUSH20 0xFFFFFFFFFFFFFFFFFFFFFFFFFFFFFFFFFFFFFFFF AND CALLER PUSH20 0xFFFFFFFFFFFFFFFFFFFFFFFFFFFFFFFFFFFFFFFF AND EQ PUSH2 0xF82 JUMPI PUSH1 0x0 DUP1 REVERT JUMPDEST DUP1 PUSH1 0x0 DUP1 DUP3 DUP3 SLOAD ADD SWAP3 POP POP DUP2 SWAP1 SSTORE POP DUP1 PUSH1 0x1 PUSH1 0x0 PUSH1 0x6 PUSH1 0x0 SWAP1 SLOAD SWAP1 PUSH2 0x100 EXP SWAP1 DIV PUSH20 0xFFFFFFFFFFFFFFFFFFFFFFFFFFFFFFFFFFFFFFFF AND PUSH20 0xFFFFFFFFFFFFFFFFFFFFFFFFFFFFFFFFFFFFFFFF AND PUSH20 0xFFFFFFFFFFFFFFFFFFFFFFFFFFFFFFFFFFFFFFFF AND DUP2 MSTORE PUSH1 0x20 ADD SWAP1 DUP2 MSTORE PUSH1 0x20 ADD PUSH1 0x0 KECCAK256 PUSH1 0x0 DUP3 DUP3 SLOAD ADD SWAP3 POP POP DUP2 SWAP1 SSTORE POP POP JUMP INVALID LOG2 PUSH5 0x6970667358 0x22 SLT KECCAK256 NUMBER CODESIZE SWAP2 RETURNDATACOPY 0xD8 0xEB SWAP8 SELFDESTRUCT CODESIZE 0xD0 SWAP11 EXTCODECOPY PUSH3 0x52A68C GASLIMIT CALL DUP13 0xC7 0xA6 0xD0 DUP11 ISZERO PC 0xE5 PUSH30 0x6B03810B6B64736F6C634300070500330000000000000000000000000000 "},"gasEstimates":{"creation":{"codeDepositCost":"830600","executionCost":"infinite","totalCost":"infinite"},"external":{"allowance(address,address)":"1387","allowed(address,address)":"1312","approve(address,uint256)":"22408","balanceOf(address)":"1263","balances(address)":"1236","convertCoinsToEther(uint256)":"infinite","decimals()":"1136","manager()":"1070","mintCoin(uint256)":"43778","name()":"infinite","symbol()":"infinite","totalSupply()":"1073","transfer(address,uint256)":"44973","transferFrom(address,address,uint256)":"67076"}},"methodIdentifiers":{"allowance(address,address)":"dd62ed3e","allowed(address,address)":"5c658165","approve(address,uint256)":"095ea7b3","balanceOf(address)":"70a08231","balances(address)":"27e235e3","convertCoinsToEther(uint256)":"1b166792","decimals()":"313ce567","manager()":"481c6a75","mintCoin(uint256)":"f3f7d04f","name()":"06fdde03","symbol()":"95d89b41","totalSupply()":"18160ddd","transfer(address,uint256)":"a9059cbb","transferFrom(address,address,uint256)":"23b872dd"}},"storageLayout":{"storage":[{"astId":3,"contract":"EIP20.sol:EIP20","label":"totalSupply","offset":0,"slot":"0","type":"t_uint256"},{"astId":14,"contract":"EIP20.sol:EIP20","label":"balances","offset":0,"slot":"1","type":"t_mapping(t_address,t_uint256)"},{"astId":20,"contract":"EIP20.sol:EIP20","label":"allowed","offset":0,"slot":"2","type":"t_mapping(t_address,t_mapping(t_address,t_uint256))"},{"astId":38,"contract":"EIP20.sol:EIP20","label":"name","offset":0,"slot":"3","type":"t_string_storage"},{"astId":40,"contract":"EIP20.sol:EIP20","label":"decimals","offset":0,"slot":"4","type":"t_uint8"},{"astId":42,"contract":"EIP20.sol:EIP20","label":"symbol","offset":0,"slot":"5","type":"t_string_storage"},{"astId":44,"contract":"EIP20.sol:EIP20","label":"manager","offset":0,"slot":"6","type":"t_address"}],"types":{"t_address":{"encoding":"inplace","label":"address","numberOfBytes":"20"},"t_mapping(t_address,t_mapping(t_address,t_uint256))":{"encoding":"mapping","key":"t_address","label":"mapping(address => mapping(address => uint256))","numberOfBytes":"32","value":"t_mapping(t_address,t_uint256)"},"t_mapping(t_address,t_uint256)":{"encoding":"mapping","key":"t_address","label":"mapping(address => uint256)","numberOfBytes":"32","value":"t_uint256"},"t_string_storage":{"encoding":"bytes","label":"string","numberOfBytes":"32"},"t_uint256":{"encoding":"inplace","label":"uint256","numberOfBytes":"32"},"t_uint8":{"encoding":"inplace","label":"uint8","numberOfBytes":"1"}}},"userdoc":{"kind":"user","methods":{},"version":1}}