{
  "contractName": "HealthCare",
  "abi": [
    {
      "inputs": [],
      "payable": false,
      "stateMutability": "nonpayable",
      "type": "constructor"
    },
    {
      "constant": true,
      "inputs": [],
      "name": "HealthNoteCount",
      "outputs": [
        {
          "internalType": "uint256",
          "name": "",
          "type": "uint256"
        }
      ],
      "payable": false,
      "stateMutability": "view",
      "type": "function"
    },
    {
      "constant": true,
      "inputs": [],
      "name": "QuestionCount",
      "outputs": [
        {
          "internalType": "uint256",
          "name": "",
          "type": "uint256"
        }
      ],
      "payable": false,
      "stateMutability": "view",
      "type": "function"
    },
    {
      "constant": true,
      "inputs": [],
      "name": "admin",
      "outputs": [
        {
          "internalType": "address",
          "name": "",
          "type": "address"
        }
      ],
      "payable": false,
      "stateMutability": "view",
      "type": "function"
    },
    {
      "constant": true,
      "inputs": [],
      "name": "doctorCount",
      "outputs": [
        {
          "internalType": "uint256",
          "name": "",
          "type": "uint256"
        }
      ],
      "payable": false,
      "stateMutability": "view",
      "type": "function"
    },
    {
      "constant": true,
      "inputs": [
        {
          "internalType": "address",
          "name": "",
          "type": "address"
        }
      ],
      "name": "doctors",
      "outputs": [
        {
          "internalType": "string",
          "name": "name",
          "type": "string"
        },
        {
          "internalType": "bool",
          "name": "isVerified",
          "type": "bool"
        }
      ],
      "payable": false,
      "stateMutability": "view",
      "type": "function"
    },
    {
      "constant": true,
      "inputs": [
        {
          "internalType": "uint256",
          "name": "",
          "type": "uint256"
        }
      ],
      "name": "healthNotes",
      "outputs": [
        {
          "internalType": "uint256",
          "name": "id",
          "type": "uint256"
        },
        {
          "internalType": "address",
          "name": "patient",
          "type": "address"
        },
        {
          "internalType": "address",
          "name": "doctor",
          "type": "address"
        },
        {
          "internalType": "string",
          "name": "title",
          "type": "string"
        },
        {
          "internalType": "string",
          "name": "description",
          "type": "string"
        },
        {
          "internalType": "string",
          "name": "file",
          "type": "string"
        }
      ],
      "payable": false,
      "stateMutability": "view",
      "type": "function"
    },
    {
      "constant": true,
      "inputs": [],
      "name": "patientCount",
      "outputs": [
        {
          "internalType": "uint256",
          "name": "",
          "type": "uint256"
        }
      ],
      "payable": false,
      "stateMutability": "view",
      "type": "function"
    },
    {
      "constant": true,
      "inputs": [
        {
          "internalType": "address",
          "name": "",
          "type": "address"
        }
      ],
      "name": "patients",
      "outputs": [
        {
          "internalType": "string",
          "name": "name",
          "type": "string"
        },
        {
          "internalType": "bool",
          "name": "isVerified",
          "type": "bool"
        }
      ],
      "payable": false,
      "stateMutability": "view",
      "type": "function"
    },
    {
      "constant": true,
      "inputs": [
        {
          "internalType": "uint256",
          "name": "",
          "type": "uint256"
        }
      ],
      "name": "questions",
      "outputs": [
        {
          "internalType": "uint256",
          "name": "id",
          "type": "uint256"
        },
        {
          "internalType": "string",
          "name": "problem",
          "type": "string"
        },
        {
          "internalType": "string",
          "name": "symptoms",
          "type": "string"
        },
        {
          "internalType": "string",
          "name": "previous",
          "type": "string"
        },
        {
          "internalType": "uint256",
          "name": "age",
          "type": "uint256"
        }
      ],
      "payable": false,
      "stateMutability": "view",
      "type": "function"
    },
    {
      "constant": false,
      "inputs": [
        {
          "internalType": "address",
          "name": "_address",
          "type": "address"
        }
      ],
      "name": "verifyDoctor",
      "outputs": [],
      "payable": false,
      "stateMutability": "nonpayable",
      "type": "function"
    },
    {
      "constant": false,
      "inputs": [
        {
          "internalType": "string",
          "name": "_name",
          "type": "string"
        }
      ],
      "name": "createDoctor",
      "outputs": [],
      "payable": false,
      "stateMutability": "nonpayable",
      "type": "function"
    },
    {
      "constant": false,
      "inputs": [
        {
          "internalType": "address",
          "name": "_patientAddress",
          "type": "address"
        },
        {
          "internalType": "string",
          "name": "_name",
          "type": "string"
        }
      ],
      "name": "createPatient",
      "outputs": [],
      "payable": false,
      "stateMutability": "nonpayable",
      "type": "function"
    },
    {
      "constant": false,
      "inputs": [
        {
          "internalType": "address",
          "name": "_patient",
          "type": "address"
        },
        {
          "internalType": "string",
          "name": "_title",
          "type": "string"
        },
        {
          "internalType": "string",
          "name": "_description",
          "type": "string"
        },
        {
          "internalType": "string",
          "name": "_file",
          "type": "string"
        }
      ],
      "name": "writeNote",
      "outputs": [],
      "payable": false,
      "stateMutability": "nonpayable",
      "type": "function"
    },
    {
      "constant": false,
      "inputs": [
        {
          "internalType": "uint256",
          "name": "_age",
          "type": "uint256"
        },
        {
          "internalType": "string",
          "name": "_symptoms",
          "type": "string"
        },
        {
          "internalType": "string",
          "name": "_problems",
          "type": "string"
        },
        {
          "internalType": "string",
          "name": "_previous",
          "type": "string"
        }
      ],
      "name": "writeQuestion",
      "outputs": [],
      "payable": false,
      "stateMutability": "nonpayable",
      "type": "function"
    }
  ],
  "bytecode": "0x6080604052600060015560006003556000600555600060075534801561002457600080fd5b50336000806101000a81548173ffffffffffffffffffffffffffffffffffffffff021916908373ffffffffffffffffffffffffffffffffffffffff160217905550611951806100746000396000f3fe608060405234801561001057600080fd5b50600436106100ea5760003560e01c80638438ba851161008c578063a9583c2211610066578063a9583c2214610a5f578063d80cb05c14610b27578063f3c7807014610b6b578063f851a44014610c46576100ea565b80638438ba8514610645578063a0303c411461084e578063a0cdb54f1461086c576100ea565b806331b1b978116100c857806331b1b978146101f357806378522bc41461038057806379e2eaa91461039e5780638352a5861461058a576100ea565b80630869cfbc146100ef5780630b354b09146101b75780631525e5ea146101d5575b600080fd5b6101316004803603602081101561010557600080fd5b81019080803573ffffffffffffffffffffffffffffffffffffffff169060200190929190505050610c90565b604051808060200183151515158152602001828103825284818151815260200191508051906020019080838360005b8381101561017b578082015181840152602081019050610160565b50505050905090810190601f1680156101a85780820380516001836020036101000a031916815260200191505b50935050505060405180910390f35b6101bf610d59565b6040518082815260200191505060405180910390f35b6101dd610d5f565b6040518082815260200191505060405180910390f35b61021f6004803603602081101561020957600080fd5b8101908080359060200190929190505050610d65565b60405180868152602001806020018060200180602001858152602001848103845288818151815260200191508051906020019080838360005b83811015610273578082015181840152602081019050610258565b50505050905090810190601f1680156102a05780820380516001836020036101000a031916815260200191505b50848103835287818151815260200191508051906020019080838360005b838110156102d95780820151818401526020810190506102be565b50505050905090810190601f1680156103065780820380516001836020036101000a031916815260200191505b50848103825286818151815260200191508051906020019080838360005b8381101561033f578082015181840152602081019050610324565b50505050905090810190601f16801561036c5780820380516001836020036101000a031916815260200191505b509850505050505050505060405180910390f35b610388610f63565b6040518082815260200191505060405180910390f35b6103ca600480360360208110156103b457600080fd5b8101908080359060200190929190505050610f69565b604051808781526020018673ffffffffffffffffffffffffffffffffffffffff1673ffffffffffffffffffffffffffffffffffffffff1681526020018573ffffffffffffffffffffffffffffffffffffffff1673ffffffffffffffffffffffffffffffffffffffff168152602001806020018060200180602001848103845287818151815260200191508051906020019080838360005b8381101561047c578082015181840152602081019050610461565b50505050905090810190601f1680156104a95780820380516001836020036101000a031916815260200191505b50848103835286818151815260200191508051906020019080838360005b838110156104e25780820151818401526020810190506104c7565b50505050905090810190601f16801561050f5780820380516001836020036101000a031916815260200191505b50848103825285818151815260200191508051906020019080838360005b8381101561054857808201518184015260208101905061052d565b50505050905090810190601f1680156105755780820380516001836020036101000a031916815260200191505b50995050505050505050505060405180910390f35b610643600480360360208110156105a057600080fd5b81019080803590602001906401000000008111156105bd57600080fd5b8201836020820111156105cf57600080fd5b803590602001918460018302840111640100000000831117156105f157600080fd5b91908080601f016020809104026020016040519081016040528093929190818152602001838380828437600081840152601f19601f8201169050808301925050505050505091929192905050506111ad565b005b61084c6004803603608081101561065b57600080fd5b81019080803573ffffffffffffffffffffffffffffffffffffffff1690602001909291908035906020019064010000000081111561069857600080fd5b8201836020820111156106aa57600080fd5b803590602001918460018302840111640100000000831117156106cc57600080fd5b91908080601f016020809104026020016040519081016040528093929190818152602001838380828437600081840152601f19601f8201169050808301925050505050505091929192908035906020019064010000000081111561072f57600080fd5b82018360208201111561074157600080fd5b8035906020019184600183028401116401000000008311171561076357600080fd5b91908080601f016020809104026020016040519081016040528093929190818152602001838380828437600081840152601f19601f820116905080830192505050505050509192919290803590602001906401000000008111156107c657600080fd5b8201836020820111156107d857600080fd5b803590602001918460018302840111640100000000831117156107fa57600080fd5b91908080601f016020809104026020016040519081016040528093929190818152602001838380828437600081840152601f19601f8201169050808301925050505050505091929192905050506112a7565b005b610856611477565b6040518082815260200191505060405180910390f35b610a5d6004803603608081101561088257600080fd5b8101908080359060200190929190803590602001906401000000008111156108a957600080fd5b8201836020820111156108bb57600080fd5b803590602001918460018302840111640100000000831117156108dd57600080fd5b91908080601f016020809104026020016040519081016040528093929190818152602001838380828437600081840152601f19601f8201169050808301925050505050505091929192908035906020019064010000000081111561094057600080fd5b82018360208201111561095257600080fd5b8035906020019184600183028401116401000000008311171561097457600080fd5b91908080601f016020809104026020016040519081016040528093929190818152602001838380828437600081840152601f19601f820116905080830192505050505050509192919290803590602001906401000000008111156109d757600080fd5b8201836020820111156109e957600080fd5b80359060200191846001830284011164010000000083111715610a0b57600080fd5b91908080601f016020809104026020016040519081016040528093929190818152602001838380828437600081840152601f19601f82011690508083019250505050505050919291929050505061147d565b005b610aa160048036036020811015610a7557600080fd5b81019080803573ffffffffffffffffffffffffffffffffffffffff16906020019092919050505061152f565b604051808060200183151515158152602001828103825284818151815260200191508051906020019080838360005b83811015610aeb578082015181840152602081019050610ad0565b50505050905090810190601f168015610b185780820380516001836020036101000a031916815260200191505b50935050505060405180910390f35b610b6960048036036020811015610b3d57600080fd5b81019080803573ffffffffffffffffffffffffffffffffffffffff1690602001909291905050506115f8565b005b610c4460048036036040811015610b8157600080fd5b81019080803573ffffffffffffffffffffffffffffffffffffffff16906020019092919080359060200190640100000000811115610bbe57600080fd5b820183602082011115610bd057600080fd5b80359060200191846001830284011164010000000083111715610bf257600080fd5b91908080601f016020809104026020016040519081016040528093929190818152602001838380828437600081840152601f19601f8201169050808301925050505050505091929192905050506116b7565b005b610c4e61181a565b604051808273ffffffffffffffffffffffffffffffffffffffff1673ffffffffffffffffffffffffffffffffffffffff16815260200191505060405180910390f35b6004602052806000526040600020600091509050806000018054600181600116156101000203166002900480601f016020809104026020016040519081016040528092919081815260200182805460018160011615610100020316600290048015610d3c5780601f10610d1157610100808354040283529160200191610d3c565b820191906000526020600020905b815481529060010190602001808311610d1f57829003601f168201915b5050505050908060010160009054906101000a900460ff16905082565b60055481565b60075481565b6008602052806000526040600020600091509050806000015490806001018054600181600116156101000203166002900480601f016020809104026020016040519081016040528092919081815260200182805460018160011615610100020316600290048015610e175780601f10610dec57610100808354040283529160200191610e17565b820191906000526020600020905b815481529060010190602001808311610dfa57829003601f168201915b505050505090806002018054600181600116156101000203166002900480601f016020809104026020016040519081016040528092919081815260200182805460018160011615610100020316600290048015610eb55780601f10610e8a57610100808354040283529160200191610eb5565b820191906000526020600020905b815481529060010190602001808311610e9857829003601f168201915b505050505090806003018054600181600116156101000203166002900480601f016020809104026020016040519081016040528092919081815260200182805460018160011615610100020316600290048015610f535780601f10610f2857610100808354040283529160200191610f53565b820191906000526020600020905b815481529060010190602001808311610f3657829003601f168201915b5050505050908060040154905085565b60015481565b60066020528060005260406000206000915090508060000154908060010160009054906101000a900473ffffffffffffffffffffffffffffffffffffffff16908060020160009054906101000a900473ffffffffffffffffffffffffffffffffffffffff1690806003018054600181600116156101000203166002900480601f0160208091040260200160405190810160405280929190818152602001828054600181600116156101000203166002900480156110675780601f1061103c57610100808354040283529160200191611067565b820191906000526020600020905b81548152906001019060200180831161104a57829003601f168201915b505050505090806004018054600181600116156101000203166002900480601f0160208091040260200160405190810160405280929190818152602001828054600181600116156101000203166002900480156111055780601f106110da57610100808354040283529160200191611105565b820191906000526020600020905b8154815290600101906020018083116110e857829003601f168201915b505050505090806005018054600181600116156101000203166002900480601f0160208091040260200160405190810160405280929190818152602001828054600181600116156101000203166002900480156111a35780601f10611178576101008083540402835291602001916111a3565b820191906000526020600020905b81548152906001019060200180831161118657829003601f168201915b5050505050905086565b60001515600260003373ffffffffffffffffffffffffffffffffffffffff1673ffffffffffffffffffffffffffffffffffffffff16815260200190815260200160002060010160009054906101000a900460ff1615151461120d57600080fd5b604051806040016040528082815260200160001515815250600260003373ffffffffffffffffffffffffffffffffffffffff1673ffffffffffffffffffffffffffffffffffffffff1681526020019081526020016000206000820151816000019080519060200190611280929190611877565b5060208201518160010160006101000a81548160ff02191690831515021790555090505050565b60011515600260003373ffffffffffffffffffffffffffffffffffffffff1673ffffffffffffffffffffffffffffffffffffffff16815260200190815260200160002060010160009054906101000a900460ff1615151461130757600080fd5b61130f61183f565b6040518060c0016040528060055481526020018573ffffffffffffffffffffffffffffffffffffffff1681526020013373ffffffffffffffffffffffffffffffffffffffff168152602001848152602001838152602001828152506006600060055481526020019081526020016000206000820151816000015560208201518160010160006101000a81548173ffffffffffffffffffffffffffffffffffffffff021916908373ffffffffffffffffffffffffffffffffffffffff16021790555060408201518160020160006101000a81548173ffffffffffffffffffffffffffffffffffffffff021916908373ffffffffffffffffffffffffffffffffffffffff1602179055506060820151816003019080519060200190611433929190611877565b506080820151816004019080519060200190611450929190611877565b5060a082015181600501908051906020019061146d929190611877565b5090505050505050565b60035481565b6040518060a001604052806007548152602001838152602001848152602001828152602001858152506008600060075481526020019081526020016000206000820151816000015560208201518160010190805190602001906114e1929190611877565b5060408201518160020190805190602001906114fe929190611877565b50606082015181600301908051906020019061151b929190611877565b506080820151816004015590505050505050565b6002602052806000526040600020600091509050806000018054600181600116156101000203166002900480601f0160208091040260200160405190810160405280929190818152602001828054600181600116156101000203166002900480156115db5780601f106115b0576101008083540402835291602001916115db565b820191906000526020600020905b8154815290600101906020018083116115be57829003601f168201915b5050505050908060010160009054906101000a900460ff16905082565b6000809054906101000a900473ffffffffffffffffffffffffffffffffffffffff1673ffffffffffffffffffffffffffffffffffffffff163373ffffffffffffffffffffffffffffffffffffffff161461165157600080fd5b6001600260008373ffffffffffffffffffffffffffffffffffffffff1673ffffffffffffffffffffffffffffffffffffffff16815260200190815260200160002060010160006101000a81548160ff0219169083151502179055506116b4611852565b50565b60011515600260003373ffffffffffffffffffffffffffffffffffffffff1673ffffffffffffffffffffffffffffffffffffffff16815260200190815260200160002060010160009054906101000a900460ff1615151461171757600080fd5b60001515600460008473ffffffffffffffffffffffffffffffffffffffff1673ffffffffffffffffffffffffffffffffffffffff16815260200190815260200160002060010160009054906101000a900460ff1615151461177757600080fd5b604051806040016040528082815260200160011515815250600460008473ffffffffffffffffffffffffffffffffffffffff1673ffffffffffffffffffffffffffffffffffffffff16815260200190815260200160002060008201518160000190805190602001906117ea929190611877565b5060208201518160010160006101000a81548160ff021916908315150217905550905050611816611864565b5050565b6000809054906101000a900473ffffffffffffffffffffffffffffffffffffffff1681565b6001600560008282540192505081905550565b60018060008282540192505081905550565b6001600360008282540192505081905550565b828054600181600116156101000203166002900490600052602060002090601f016020900481019282601f106118b857805160ff19168380011785556118e6565b828001600101855582156118e6579182015b828111156118e55782518255916020019190600101906118ca565b5b5090506118f391906118f7565b5090565b61191991905b808211156119155760008160009055506001016118fd565b5090565b9056fea265627a7a7231582086b50465f262cf14e768ac046603efaa2b18b3d7c3831cf843f5fe482d1e930d64736f6c63430005100032",
  "source": "pragma solidity ^0.5.0;\r\n\r\n\r\ncontract HealthCare {\r\n    address public admin;\r\n\r\n    constructor() public {\r\n        admin = msg.sender;\r\n    }\r\n\r\n    modifier adminCheck() {\r\n        require(msg.sender == admin);\r\n        _;\r\n    }\r\n\r\n    function verifyDoctor(address _address) public adminCheck {\r\n        doctors[_address].isVerified = true;\r\n        doctorsCounter();\r\n    }\r\n\r\n    uint256 public doctorCount = 0;\r\n    mapping(address => Doctor) public doctors;\r\n    struct Doctor {\r\n        string name;\r\n        bool isVerified;\r\n    }\r\n\r\n    function doctorsCounter() internal {\r\n        doctorCount += 1;\r\n    }\r\n\r\n    function createDoctor(string memory _name) public {\r\n        require(doctors[msg.sender].isVerified == false);     \r\n        doctors[msg.sender] = Doctor(_name, false);\r\n    }\r\n\r\n    uint256 public patientCount = 0;\r\n    mapping(address => Patient) public patients;\r\n    struct Patient {\r\n        string name;\r\n        bool isVerified;\r\n    }\r\n    \r\n    function patientsCounter() internal {\r\n        patientCount += 1;\r\n    }\r\n\r\n    function createPatient( address _patientAddress, string memory _name) public {\r\n        \r\n        require(doctors[msg.sender].isVerified == true);\r\n        require(patients[_patientAddress].isVerified == false);\r\n        \r\n        patients[_patientAddress] = Patient(_name, true);\r\n        patientsCounter();\r\n    }\r\n\r\n    uint256 public HealthNoteCount = 0;\r\n    mapping(uint256 => HealthNote) public healthNotes;\r\n    struct HealthNote {\r\n        uint256 id;\r\n        address patient;\r\n        address doctor;\r\n        string title;\r\n        string description;\r\n        string file;\r\n    }\r\n\r\n    function HealthNoteCounter() internal {\r\n        HealthNoteCount += 1;\r\n    }\r\n    \r\n    \r\n    function writeNote(\r\n        address _patient,\r\n        string memory _title,\r\n        string memory _description,\r\n        string memory _file\r\n    ) public {\r\n        \r\n\r\n        require(doctors[msg.sender].isVerified == true);\r\n        \r\n        HealthNoteCounter();\r\n        healthNotes[HealthNoteCount] = HealthNote(\r\n            HealthNoteCount,\r\n            _patient,\r\n            msg.sender,\r\n            _title,\r\n            _description,\r\n            _file\r\n        );\r\n    }\r\n    uint256 public QuestionCount = 0;\r\n    mapping(uint256 => Questionnaire) public questions;\r\n    struct Questionnaire {\r\n        uint256 id;\r\n        // address patient;\r\n        // address doctor;\r\n        string problem;\r\n        string symptoms;\r\n        string previous;\r\n        uint256 age;\r\n    }\r\n\r\n    function writeQuestion(\r\n        // address _patient,\r\n        uint256 _age,\r\n        string memory _symptoms,\r\n        string memory _problems,\r\n        string memory _previous\r\n    ) public {\r\n        \r\n        // require(doctors[msg.sender].isVerified == true);\r\n        \r\n        questions[QuestionCount] = Questionnaire(\r\n            QuestionCount,\r\n            // _patient,\r\n            _problems,\r\n             _symptoms,\r\n             _previous,\r\n             _age\r\n        );\r\n    }\r\n}",
  "sourcePath": "C:/Users/eshaa/Desktop/HackIIITV/hackiiitv20-submissions/team1-3/src/contracts/HealthCare.sol",
  "compiler": {
    "name": "solc",
    "version": "0.5.16+commit.9c3226ce.Emscripten.clang"
  },
  "schemaVersion": "3.3.1",
  "updatedAt": "2020-12-12T08:18:04.151Z",
  "networkType": "ethereum",
  "devdoc": {
    "methods": {}
  },
  "userdoc": {
    "methods": {}
  }
}